{
  "contractName": "DeedContract",
  "abi": [
    {
      "constant": true,
      "inputs": [
        {
          "name": "",
          "type": "uint256"
        }
      ],
      "name": "deeds",
      "outputs": [
        {
          "name": "id",
          "type": "uint256"
        },
        {
          "name": "propertyId",
          "type": "uint256"
        },
        {
          "name": "stampPaperAmount",
          "type": "uint256"
        },
        {
          "name": "soldAmount",
          "type": "uint256"
        },
        {
          "name": "deedType",
          "type": "bytes32"
        },
        {
          "name": "sellerFullName",
          "type": "bytes32"
        },
        {
          "name": "sellerNic",
          "type": "bytes32"
        },
        {
          "name": "sellerPKey",
          "type": "bytes32"
        },
        {
          "name": "buyerFullName",
          "type": "bytes32"
        },
        {
          "name": "buyerNic",
          "type": "bytes32"
        },
        {
          "name": "buyerPKey",
          "type": "bytes32"
        },
        {
          "name": "next",
          "type": "uint256"
        },
        {
          "name": "prev",
          "type": "uint256"
        }
      ],
      "payable": false,
      "stateMutability": "view",
      "type": "function"
    },
    {
      "inputs": [],
      "payable": false,
      "stateMutability": "nonpayable",
      "type": "constructor"
    },
    {
      "anonymous": false,
      "inputs": [
        {
          "indexed": false,
          "name": "newID",
          "type": "uint256"
        }
      ],
      "name": "newIdEvent",
      "type": "event"
    },
    {
      "constant": false,
      "inputs": [
        {
          "name": "_propertyId",
          "type": "uint256"
        },
        {
          "name": "_stampPaperAmount",
          "type": "uint256"
        },
        {
          "name": "_soldAmount",
          "type": "uint256"
        },
        {
          "name": "_deedType",
          "type": "bytes32"
        },
        {
          "name": "_sellerFullName",
          "type": "bytes32"
        },
        {
          "name": "_sellerNic",
          "type": "bytes32"
        },
        {
          "name": "_sellerPKey",
          "type": "bytes32"
        },
        {
          "name": "_buyerFullName",
          "type": "bytes32"
        },
        {
          "name": "_buyerNic",
          "type": "bytes32"
        },
        {
          "name": "_buyerPKey",
          "type": "bytes32"
        }
      ],
      "name": "insert",
      "outputs": [
        {
          "name": "newID",
          "type": "uint256"
        }
      ],
      "payable": false,
      "stateMutability": "nonpayable",
      "type": "function"
    },
    {
      "constant": true,
      "inputs": [],
      "name": "getDeedCount",
      "outputs": [
        {
          "name": "",
          "type": "uint256"
        }
      ],
      "payable": false,
      "stateMutability": "view",
      "type": "function"
    },
    {
      "constant": true,
      "inputs": [
        {
          "name": "index",
          "type": "uint256"
        }
      ],
      "name": "getDeedFirst",
      "outputs": [
        {
          "name": "",
          "type": "uint256"
        },
        {
          "name": "",
          "type": "uint256"
        },
        {
          "name": "",
          "type": "uint256"
        },
        {
          "name": "",
          "type": "uint256"
        },
        {
          "name": "",
          "type": "bytes32"
        },
        {
          "name": "",
          "type": "uint256"
        },
        {
          "name": "",
          "type": "uint256"
        }
      ],
      "payable": false,
      "stateMutability": "view",
      "type": "function"
    },
    {
      "constant": true,
      "inputs": [
        {
          "name": "index",
          "type": "uint256"
        }
      ],
      "name": "getDeedSecond",
      "outputs": [
        {
          "name": "",
          "type": "uint256"
        },
        {
          "name": "",
          "type": "bytes32"
        },
        {
          "name": "",
          "type": "bytes32"
        },
        {
          "name": "",
          "type": "bytes32"
        },
        {
          "name": "",
          "type": "uint256"
        },
        {
          "name": "",
          "type": "uint256"
        }
      ],
      "payable": false,
      "stateMutability": "view",
      "type": "function"
    },
    {
      "constant": true,
      "inputs": [
        {
          "name": "index",
          "type": "uint256"
        }
      ],
      "name": "getDeedThird",
      "outputs": [
        {
          "name": "",
          "type": "uint256"
        },
        {
          "name": "",
          "type": "bytes32"
        },
        {
          "name": "",
          "type": "bytes32"
        },
        {
          "name": "",
          "type": "bytes32"
        },
        {
          "name": "",
          "type": "uint256"
        },
        {
          "name": "",
          "type": "uint256"
        }
      ],
      "payable": false,
      "stateMutability": "view",
      "type": "function"
    }
  ],
  "bytecode": "0x608060405234801561001057600080fd5b5060006101a06040519081016040528060008152602001600081526020016000815260200160008152602001600060010281526020016000600102815260200160006001028152602001600060010281526020016000600102815260200160006001028152602001600060010281526020016000815260200160008152509080600181540180825580915050906001820390600052602060002090600d020160009091929091909150600082015181600001556020820151816001015560408201518160020155606082015181600301556080820151816004015560a0820151816005015560c0820151816006015560e082015181600701556101008201518160080155610120820151816009015561014082015181600a015561016082015181600b015561018082015181600c015550505061085b806101526000396000f3fe608060405260043610610078576000357c0100000000000000000000000000000000000000000000000000000000900463ffffffff168063045439c31461007d57806318edf564146100ef578063334bb745146101925780634354b17e146101bd5780637015377214610267578063e1b4eb35146102d9575b600080fd5b34801561008957600080fd5b506100b6600480360360208110156100a057600080fd5b8101908080359060200190929190505050610352565b60405180878152602001868152602001858152602001848152602001838152602001828152602001965050505050505060405180910390f35b3480156100fb57600080fd5b506101286004803603602081101561011257600080fd5b8101908080359060200190929190505050610436565b604051808e81526020018d81526020018c81526020018b81526020018a81526020018981526020018881526020018781526020018681526020018581526020018481526020018381526020018281526020019d505050505050505050505050505060405180910390f35b34801561019e57600080fd5b506101a76104ab565b6040518082815260200191505060405180910390f35b3480156101c957600080fd5b5061025160048036036101408110156101e157600080fd5b81019080803590602001909291908035906020019092919080359060200190929190803590602001909291908035906020019092919080359060200190929190803590602001909291908035906020019092919080359060200190929190803590602001909291905050506104b7565b6040518082815260200191505060405180910390f35b34801561027357600080fd5b506102a06004803603602081101561028a57600080fd5b8101908080359060200190929190505050610641565b60405180878152602001868152602001858152602001848152602001838152602001828152602001965050505050505060405180910390f35b3480156102e557600080fd5b50610312600480360360208110156102fc57600080fd5b8101908080359060200190929190505050610725565b6040518088815260200187815260200186815260200185815260200184815260200183815260200182815260200197505050505050505060405180910390f35b60008060008060008060008781548110151561036a57fe5b90600052602060002090600d02016000015460008881548110151561038b57fe5b90600052602060002090600d0201600801546000898154811015156103ac57fe5b90600052602060002090600d02016009015460008a8154811015156103cd57fe5b90600052602060002090600d0201600a015460008b8154811015156103ee57fe5b90600052602060002090600d0201600c015460008c81548110151561040f57fe5b90600052602060002090600d0201600b015495509550955095509550955091939550919395565b60008181548110151561044557fe5b90600052602060002090600d020160009150905080600001549080600101549080600201549080600301549080600401549080600501549080600601549080600701549080600801549080600901549080600a01549080600b01549080600c015490508d565b60008080549050905090565b60008080549050905060006101a0604051908101604052808381526020018d81526020018c81526020018b81526020018a815260200189815260200188815260200187815260200186815260200185815260200184815260200160008152602001600184038152509080600181540180825580915050906001820390600052602060002090600d020160009091929091909150600082015181600001556020820151816001015560408201518160020155606082015181600301556080820151816004015560a0820151816005015560c0820151816006015560e082015181600701556101008201518160080155610120820151816009015561014082015181600a015561016082015181600b015561018082015181600c0155505050806000600183038154811015156105e757fe5b90600052602060002090600d0201600b01819055507fc56bc3c3f07ef03390a445e904bef98f8726182669abf36fd54f8fe19b831f67816040518082815260200191505060405180910390a19a9950505050505050505050565b60008060008060008060008781548110151561065957fe5b90600052602060002090600d02016000015460008881548110151561067a57fe5b90600052602060002090600d02016005015460008981548110151561069b57fe5b90600052602060002090600d02016006015460008a8154811015156106bc57fe5b90600052602060002090600d02016007015460008b8154811015156106dd57fe5b90600052602060002090600d0201600c015460008c8154811015156106fe57fe5b90600052602060002090600d0201600b015495509550955095509550955091939550919395565b6000806000806000806000808881548110151561073e57fe5b90600052602060002090600d02016000015460008981548110151561075f57fe5b90600052602060002090600d02016001015460008a81548110151561078057fe5b90600052602060002090600d02016002015460008b8154811015156107a157fe5b90600052602060002090600d02016003015460008c8154811015156107c257fe5b90600052602060002090600d02016004015460008d8154811015156107e357fe5b90600052602060002090600d0201600c015460008e81548110151561080457fe5b90600052602060002090600d0201600b0154965096509650965096509650965091939597909294965056fea165627a7a723058207d88998fe42dec9b33f61e72a832b7572f26593d43d3b954509c4c8c2001f45f0029",
  "source": "pragma solidity 0.5.0;\r\n \r\n  contract DeedContract {\r\n      \r\n     struct Deed {\r\n        uint id;                                                                \r\n        uint propertyId;\r\n        uint stampPaperAmount;\r\n        uint soldAmount;\r\n        bytes32 deedType;\r\n        bytes32 sellerFullName;\r\n        bytes32 sellerNic;\r\n        bytes32 sellerPKey;\r\n        bytes32 buyerFullName;\r\n        bytes32 buyerNic;\r\n        bytes32 buyerPKey;\r\n        uint next;\r\n        uint prev;\r\n    }\r\n        \r\n        Deed[] public deeds;\r\n        Deed currentDeedNode;\r\n        event newIdEvent(uint newID);\r\n        constructor() public {\r\n            // sentinel\r\n            deeds.push(Deed(0, 0, 0, 0,0x00,0x00, 0x00,0x00,0x00,0x00,0x00,0,0));\r\n        }\r\n\r\n\r\n    function insert(                                                                \r\n        uint _propertyId,\r\n        uint _stampPaperAmount,\r\n        uint _soldAmount,\r\n        bytes32 _deedType,\r\n        bytes32 _sellerFullName,\r\n        bytes32 _sellerNic,\r\n        bytes32 _sellerPKey,\r\n        bytes32 _buyerFullName,\r\n        bytes32 _buyerNic,\r\n        bytes32 _buyerPKey) public returns (uint newID) {\r\n\r\n        newID = deeds.length;\r\n\r\n        deeds.push(Deed({\r\n                 id:newID,                                                               \r\n                 propertyId:_propertyId,\r\n                 stampPaperAmount:_stampPaperAmount,\r\n                 soldAmount:_soldAmount,\r\n                 deedType:_deedType,\r\n                 sellerFullName:_sellerFullName,\r\n                 sellerNic:_sellerNic,\r\n                 sellerPKey:_sellerPKey,\r\n                 buyerFullName:_buyerFullName,\r\n                 buyerNic:_buyerNic,\r\n                 buyerPKey:_buyerPKey,\r\n                 prev: newID-1,\r\n                 next: 0\r\n        }));\r\n      deeds[newID-1].next=newID;\r\n        emit newIdEvent(newID);\r\n    }\r\n\r\n    function isValidNode(uint id) internal view returns (bool) {\r\n        // 0 is a sentinel and therefore invalid.\r\n        // A valid node is the head or has a previous node.\r\n        return id != 0 && (id == deeds[0].next || deeds[id].prev != 0);\r\n    }\r\n    \r\n    function getDeedCount() public view returns(uint) {\r\n      return deeds.length;\r\n    }\r\n\r\n    function getDeedFirst(uint index) public view returns(uint,\r\n        uint,uint,uint,bytes32,uint, uint) {\r\n        return (deeds[index].id, \r\n        deeds[index].propertyId,\r\n        deeds[index].stampPaperAmount,\r\n        deeds[index].soldAmount,\r\n        deeds[index].deedType,\r\n        deeds[index].prev, \r\n        deeds[index].next);\r\n    }\r\n    function getDeedSecond(uint index) public view returns(uint,\r\n        bytes32,bytes32,bytes32,uint, uint) {\r\n        return (deeds[index].id,\r\n        deeds[index].sellerFullName,\r\n        deeds[index].sellerNic,\r\n        deeds[index].sellerPKey,\r\n        deeds[index].prev, \r\n        deeds[index].next);\r\n    }\r\n    \r\n     function getDeedThird(uint index) public view returns(uint,\r\n        bytes32,bytes32,bytes32,uint, uint) {\r\n        return (deeds[index].id,\r\n        deeds[index].buyerFullName,\r\n        deeds[index].buyerNic,\r\n        deeds[index].buyerPKey,\r\n        deeds[index].prev, \r\n        deeds[index].next);\r\n    }\r\n\r\n      \r\n}\r\n  \r\n\r\n\r\n",
  "sourcePath": "C:/AsadFiles/final-year-project/real-estate-ledger-frontend/contracts/DeedContract.sol",
  "compiler": {
    "name": "solc",
    "version": "0.5.0+commit.1d4f565a.Emscripten.clang"
  },
  "schemaVersion": "3.0.9",
  "updatedAt": "2019-06-05T19:53:03.421Z",
  "devdoc": {
    "methods": {}
  },
  "userdoc": {
    "methods": {}
  }
}