{
  "contractName": "LeasedPropertyContract",
  "abi": [
    {
      "constant": true,
      "inputs": [
        {
          "name": "",
          "type": "uint256"
        }
      ],
      "name": "leasedProperties",
      "outputs": [
        {
          "name": "id",
          "type": "uint256"
        },
        {
          "name": "mutationId",
          "type": "uint256"
        },
        {
          "name": "propertyId",
          "type": "uint256"
        },
        {
          "name": "leaseStartDate",
          "type": "uint256"
        },
        {
          "name": "leaseEndDate",
          "type": "uint256"
        },
        {
          "name": "leasedByPkey",
          "type": "address"
        },
        {
          "name": "leasedByNic",
          "type": "bytes32"
        },
        {
          "name": "leasedToPkey",
          "type": "address"
        },
        {
          "name": "leasedToNic",
          "type": "bytes32"
        },
        {
          "name": "leasedAmount",
          "type": "uint256"
        },
        {
          "name": "taxAmountPerYear",
          "type": "uint256"
        },
        {
          "name": "next",
          "type": "uint256"
        },
        {
          "name": "prev",
          "type": "uint256"
        }
      ],
      "payable": false,
      "stateMutability": "view",
      "type": "function"
    },
    {
      "inputs": [],
      "payable": false,
      "stateMutability": "nonpayable",
      "type": "constructor"
    },
    {
      "anonymous": false,
      "inputs": [
        {
          "indexed": false,
          "name": "newID",
          "type": "uint256"
        }
      ],
      "name": "newIdEvent",
      "type": "event"
    },
    {
      "constant": false,
      "inputs": [
        {
          "name": "_mutationId",
          "type": "uint256"
        },
        {
          "name": "_propertyId",
          "type": "uint256"
        },
        {
          "name": "_leaseStartDate",
          "type": "uint256"
        },
        {
          "name": "_leaseEndDate",
          "type": "uint256"
        },
        {
          "name": "_leasedByPkey",
          "type": "address"
        },
        {
          "name": "_leasedByNic",
          "type": "bytes32"
        },
        {
          "name": "_leasedToPkey",
          "type": "address"
        },
        {
          "name": "_leasedToNic",
          "type": "bytes32"
        },
        {
          "name": "_leasedAmount",
          "type": "uint256"
        },
        {
          "name": "_taxAmountPerYear",
          "type": "uint256"
        }
      ],
      "name": "insert",
      "outputs": [
        {
          "name": "newID",
          "type": "uint256"
        }
      ],
      "payable": false,
      "stateMutability": "nonpayable",
      "type": "function"
    },
    {
      "constant": true,
      "inputs": [],
      "name": "getLeasedCount",
      "outputs": [
        {
          "name": "",
          "type": "uint256"
        }
      ],
      "payable": false,
      "stateMutability": "view",
      "type": "function"
    },
    {
      "constant": true,
      "inputs": [
        {
          "name": "index",
          "type": "uint256"
        }
      ],
      "name": "getLeasedFirst",
      "outputs": [
        {
          "name": "",
          "type": "uint256"
        },
        {
          "name": "",
          "type": "uint256"
        },
        {
          "name": "",
          "type": "uint256"
        },
        {
          "name": "",
          "type": "uint256"
        },
        {
          "name": "",
          "type": "uint256"
        },
        {
          "name": "",
          "type": "uint256"
        },
        {
          "name": "",
          "type": "uint256"
        }
      ],
      "payable": false,
      "stateMutability": "view",
      "type": "function"
    },
    {
      "constant": true,
      "inputs": [
        {
          "name": "index",
          "type": "uint256"
        }
      ],
      "name": "getLeasedSecond",
      "outputs": [
        {
          "name": "",
          "type": "uint256"
        },
        {
          "name": "",
          "type": "address"
        },
        {
          "name": "",
          "type": "bytes32"
        },
        {
          "name": "",
          "type": "uint256"
        },
        {
          "name": "",
          "type": "uint256"
        }
      ],
      "payable": false,
      "stateMutability": "view",
      "type": "function"
    },
    {
      "constant": true,
      "inputs": [
        {
          "name": "index",
          "type": "uint256"
        }
      ],
      "name": "getLeasedThird",
      "outputs": [
        {
          "name": "",
          "type": "uint256"
        },
        {
          "name": "",
          "type": "address"
        },
        {
          "name": "",
          "type": "bytes32"
        },
        {
          "name": "",
          "type": "uint256"
        },
        {
          "name": "",
          "type": "uint256"
        },
        {
          "name": "",
          "type": "uint256"
        },
        {
          "name": "",
          "type": "uint256"
        }
      ],
      "payable": false,
      "stateMutability": "view",
      "type": "function"
    }
  ],
  "bytecode": "0x608060405234801561001057600080fd5b5060006101a0604051908101604052806000815260200160008152602001600081526020016000815260200160008152602001600073ffffffffffffffffffffffffffffffffffffffff16815260200160006001028152602001600073ffffffffffffffffffffffffffffffffffffffff1681526020016000600102815260200160008152602001600081526020016000815260200160008152509080600181540180825580915050906001820390600052602060002090600d020160009091929091909150600082015181600001556020820151816001015560408201518160020155606082015181600301556080820151816004015560a08201518160050160006101000a81548173ffffffffffffffffffffffffffffffffffffffff021916908373ffffffffffffffffffffffffffffffffffffffff16021790555060c0820151816006015560e08201518160070160006101000a81548173ffffffffffffffffffffffffffffffffffffffff021916908373ffffffffffffffffffffffffffffffffffffffff1602179055506101008201518160080155610120820151816009015561014082015181600a015561016082015181600b015561018082015181600c0155505050610a5e806101e96000396000f3fe608060405260043610610078576000357c0100000000000000000000000000000000000000000000000000000000900463ffffffff168063757f532a1461007d57806382e7ca23146100f6578063930f398b1461018d578063965e1f1014610263578063abcd0f1814610308578063b057357914610333575b600080fd5b34801561008957600080fd5b506100b6600480360360208110156100a057600080fd5b810190808035906020019092919050505061042e565b6040518088815260200187815260200186815260200185815260200184815260200183815260200182815260200197505050505050505060405180910390f35b34801561010257600080fd5b5061012f6004803603602081101561011957600080fd5b8101908080359060200190929190505050610538565b604051808681526020018573ffffffffffffffffffffffffffffffffffffffff1673ffffffffffffffffffffffffffffffffffffffff1681526020018481526020018381526020018281526020019550505050505060405180910390f35b34801561019957600080fd5b5061024d60048036036101408110156101b157600080fd5b8101908080359060200190929190803590602001909291908035906020019092919080359060200190929190803573ffffffffffffffffffffffffffffffffffffffff16906020019092919080359060200190929190803573ffffffffffffffffffffffffffffffffffffffff169060200190929190803590602001909291908035906020019092919080359060200190929190505050610617565b6040518082815260200191505060405180910390f35b34801561026f57600080fd5b5061029c6004803603602081101561028657600080fd5b8101908080359060200190929190505050610847565b604051808881526020018773ffffffffffffffffffffffffffffffffffffffff1673ffffffffffffffffffffffffffffffffffffffff16815260200186815260200185815260200184815260200183815260200182815260200197505050505050505060405180910390f35b34801561031457600080fd5b5061031d610971565b6040518082815260200191505060405180910390f35b34801561033f57600080fd5b5061036c6004803603602081101561035657600080fd5b810190808035906020019092919050505061097d565b604051808e81526020018d81526020018c81526020018b81526020018a81526020018973ffffffffffffffffffffffffffffffffffffffff1673ffffffffffffffffffffffffffffffffffffffff1681526020018881526020018773ffffffffffffffffffffffffffffffffffffffff1673ffffffffffffffffffffffffffffffffffffffff1681526020018681526020018581526020018481526020018381526020018281526020019d505050505050505050505050505060405180910390f35b6000806000806000806000808881548110151561044757fe5b90600052602060002090600d02016000015460008981548110151561046857fe5b90600052602060002090600d02016001015460008a81548110151561048957fe5b90600052602060002090600d02016002015460008b8154811015156104aa57fe5b90600052602060002090600d02016003015460008c8154811015156104cb57fe5b90600052602060002090600d02016004015460008d8154811015156104ec57fe5b90600052602060002090600d0201600c015460008e81548110151561050d57fe5b90600052602060002090600d0201600b01549650965096509650965096509650919395979092949650565b6000806000806000808681548110151561054e57fe5b90600052602060002090600d02016000015460008781548110151561056f57fe5b90600052602060002090600d020160050160009054906101000a900473ffffffffffffffffffffffffffffffffffffffff166000888154811015156105b057fe5b90600052602060002090600d0201600601546000898154811015156105d157fe5b90600052602060002090600d0201600c015460008a8154811015156105f257fe5b90600052602060002090600d0201600b01549450945094509450945091939590929450565b60008080549050905060006101a0604051908101604052808381526020018d81526020018c81526020018b81526020018a81526020018973ffffffffffffffffffffffffffffffffffffffff1681526020018881526020018773ffffffffffffffffffffffffffffffffffffffff16815260200186815260200185815260200184815260200160008152602001600184038152509080600181540180825580915050906001820390600052602060002090600d020160009091929091909150600082015181600001556020820151816001015560408201518160020155606082015181600301556080820151816004015560a08201518160050160006101000a81548173ffffffffffffffffffffffffffffffffffffffff021916908373ffffffffffffffffffffffffffffffffffffffff16021790555060c0820151816006015560e08201518160070160006101000a81548173ffffffffffffffffffffffffffffffffffffffff021916908373ffffffffffffffffffffffffffffffffffffffff1602179055506101008201518160080155610120820151816009015561014082015181600a015561016082015181600b015561018082015181600c0155505050806000600183038154811015156107ed57fe5b90600052602060002090600d0201600b01819055507fc56bc3c3f07ef03390a445e904bef98f8726182669abf36fd54f8fe19b831f67816040518082815260200191505060405180910390a19a9950505050505050505050565b6000806000806000806000808881548110151561086057fe5b90600052602060002090600d02016000015460008981548110151561088157fe5b90600052602060002090600d020160070160009054906101000a900473ffffffffffffffffffffffffffffffffffffffff1660008a8154811015156108c257fe5b90600052602060002090600d02016008015460008b8154811015156108e357fe5b90600052602060002090600d02016009015460008c81548110151561090457fe5b90600052602060002090600d0201600a015460008d81548110151561092557fe5b90600052602060002090600d0201600c015460008e81548110151561094657fe5b90600052602060002090600d0201600b01549650965096509650965096509650919395979092949650565b60008080549050905090565b60008181548110151561098c57fe5b90600052602060002090600d02016000915090508060000154908060010154908060020154908060030154908060040154908060050160009054906101000a900473ffffffffffffffffffffffffffffffffffffffff16908060060154908060070160009054906101000a900473ffffffffffffffffffffffffffffffffffffffff169080600801549080600901549080600a01549080600b01549080600c015490508d56fea165627a7a72305820f0cab36f034a8a25b2ab57500c6589f9b00b4c38910bab6b393cd72ed254390d0029",
  "source": "pragma solidity 0.5.0;\r\n \r\n  contract LeasedPropertyContract {\r\n      \r\n     struct LeasedProperty {\r\n        uint id;\r\n        uint mutationId;\r\n        uint propertyId;\r\n        uint leaseStartDate;\r\n        uint leaseEndDate;\r\n        address leasedByPkey;\r\n        bytes32 leasedByNic;\r\n        address leasedToPkey;\r\n        bytes32 leasedToNic;\r\n        uint leasedAmount;\r\n        uint taxAmountPerYear;\r\n        uint next;\r\n        uint prev;\r\n    }\r\n        \r\n        LeasedProperty[] public leasedProperties;\r\n        LeasedProperty currentLeasedNode;\r\n        event newIdEvent(uint newID);\r\n        constructor() public {\r\n            // sentinel\r\n            leasedProperties.push(LeasedProperty(0, 0, 0,0,0, address(0),0x00,address(0),0x00,0,0,0,0));\r\n        }\r\n\r\n\r\n    function insert(                                                                \r\n        uint _mutationId,\r\n        uint _propertyId,\r\n        uint _leaseStartDate,\r\n        uint _leaseEndDate,\r\n        address _leasedByPkey,\r\n        bytes32 _leasedByNic,\r\n        address _leasedToPkey,\r\n        bytes32 _leasedToNic,\r\n        uint _leasedAmount,\r\n        uint _taxAmountPerYear) public returns (uint newID) {\r\n\r\n        newID = leasedProperties.length;\r\n\r\n        leasedProperties.push(LeasedProperty({\r\n                    id:newID,                                                               \r\n                    mutationId:_mutationId,\r\n                    propertyId: _propertyId,\r\n                    leaseStartDate:_leaseStartDate,\r\n                    leaseEndDate:_leaseEndDate,\r\n                    leasedByPkey:_leasedByPkey,\r\n                    leasedByNic:_leasedByNic,\r\n                    leasedToPkey:_leasedToPkey,\r\n                    leasedToNic:_leasedToNic,\r\n                    leasedAmount:_leasedAmount,\r\n                    taxAmountPerYear:_taxAmountPerYear,\r\n                    prev: newID-1,\r\n                    next: 0\r\n        }));\r\n      leasedProperties[newID-1].next=newID;\r\n        emit newIdEvent(newID);\r\n    }\r\n\r\n    function isValidNode(uint id) internal view returns (bool) {\r\n        // 0 is a sentinel and therefore invalid.\r\n        // A valid node is the head or has a previous node.\r\n        return id != 0 && (id == leasedProperties[0].next || leasedProperties[id].prev != 0);\r\n    }\r\n    \r\n    function getLeasedCount() public view returns(uint) {\r\n      return leasedProperties.length;\r\n    }\r\n\r\n    function getLeasedFirst(uint index) public view returns(uint,\r\n        uint,uint,uint,uint, uint, uint) {\r\n        return (leasedProperties[index].id, \r\n        leasedProperties[index].mutationId,\r\n        leasedProperties[index].propertyId,\r\n        leasedProperties[index].leaseStartDate,\r\n        leasedProperties[index].leaseEndDate,\r\n        leasedProperties[index].prev,\r\n        leasedProperties[index].next);\r\n    }\r\n   function getLeasedSecond(uint index) public view returns(uint,address,bytes32,uint, uint) {\r\n        return (leasedProperties[index].id,\r\n        leasedProperties[index].leasedByPkey,\r\n        leasedProperties[index].leasedByNic,\r\n        leasedProperties[index].prev, \r\n        leasedProperties[index].next);\r\n    }\r\n function getLeasedThird(uint index) public view returns(uint,address,bytes32,uint,uint,uint, uint) {\r\n        return (leasedProperties[index].id,\r\n        leasedProperties[index].leasedToPkey,\r\n        leasedProperties[index].leasedToNic,\r\n        leasedProperties[index].leasedAmount,\r\n        leasedProperties[index].taxAmountPerYear,\r\n        leasedProperties[index].prev, \r\n        leasedProperties[index].next);\r\n    }\r\n\r\n      \r\n}\r\n  ",
  "sourcePath": "C:/AsadFiles/RealEstateLedgerFrontEnd/contracts/LeasedPropertyContract.sol",
  "compiler": {
    "name": "solc",
    "version": "0.5.0+commit.1d4f565a.Emscripten.clang"
  },
  "schemaVersion": "3.0.9",
  "updatedAt": "2019-06-12T04:43:07.438Z",
  "devdoc": {
    "methods": {}
  },
  "userdoc": {
    "methods": {}
  }
}