{
  "contractName": "LeasedPropertyContract",
  "abi": [
    {
      "constant": true,
      "inputs": [
        {
          "name": "",
          "type": "uint256"
        }
      ],
      "name": "leasedProperties",
      "outputs": [
        {
          "name": "id",
          "type": "uint256"
        },
        {
          "name": "mutationId",
          "type": "uint256"
        },
        {
          "name": "propertyId",
          "type": "uint256"
        },
        {
          "name": "leaseStartDate",
          "type": "uint256"
        },
        {
          "name": "leaseEndDate",
          "type": "uint256"
        },
        {
          "name": "leasedBy",
          "type": "address"
        },
        {
          "name": "leasedTo",
          "type": "address"
        },
        {
          "name": "taxAmountPerYear",
          "type": "uint256"
        },
        {
          "name": "next",
          "type": "uint256"
        },
        {
          "name": "prev",
          "type": "uint256"
        }
      ],
      "payable": false,
      "stateMutability": "view",
      "type": "function"
    },
    {
      "inputs": [],
      "payable": false,
      "stateMutability": "nonpayable",
      "type": "constructor"
    },
    {
      "anonymous": false,
      "inputs": [
        {
          "indexed": false,
          "name": "newID",
          "type": "uint256"
        }
      ],
      "name": "newIdEvent",
      "type": "event"
    },
    {
      "constant": false,
      "inputs": [
        {
          "name": "_mutationId",
          "type": "uint256"
        },
        {
          "name": "_propertyId",
          "type": "uint256"
        },
        {
          "name": "_leaseStartDate",
          "type": "uint256"
        },
        {
          "name": "_leaseEndDate",
          "type": "uint256"
        },
        {
          "name": "_leasedBy",
          "type": "address"
        },
        {
          "name": "_leasedTo",
          "type": "address"
        },
        {
          "name": "_taxAmountPerYear",
          "type": "uint256"
        }
      ],
      "name": "insert",
      "outputs": [
        {
          "name": "newID",
          "type": "uint256"
        }
      ],
      "payable": false,
      "stateMutability": "nonpayable",
      "type": "function"
    },
    {
      "constant": true,
      "inputs": [],
      "name": "getLeasedCount",
      "outputs": [
        {
          "name": "",
          "type": "uint256"
        }
      ],
      "payable": false,
      "stateMutability": "view",
      "type": "function"
    },
    {
      "constant": true,
      "inputs": [
        {
          "name": "index",
          "type": "uint256"
        }
      ],
      "name": "getLeasedFirst",
      "outputs": [
        {
          "name": "",
          "type": "uint256"
        },
        {
          "name": "",
          "type": "uint256"
        },
        {
          "name": "",
          "type": "uint256"
        },
        {
          "name": "",
          "type": "uint256"
        },
        {
          "name": "",
          "type": "uint256"
        },
        {
          "name": "",
          "type": "uint256"
        },
        {
          "name": "",
          "type": "uint256"
        }
      ],
      "payable": false,
      "stateMutability": "view",
      "type": "function"
    },
    {
      "constant": true,
      "inputs": [
        {
          "name": "index",
          "type": "uint256"
        }
      ],
      "name": "getLeasedSecond",
      "outputs": [
        {
          "name": "",
          "type": "uint256"
        },
        {
          "name": "",
          "type": "address"
        },
        {
          "name": "",
          "type": "address"
        },
        {
          "name": "",
          "type": "uint256"
        },
        {
          "name": "",
          "type": "uint256"
        },
        {
          "name": "",
          "type": "uint256"
        }
      ],
      "payable": false,
      "stateMutability": "view",
      "type": "function"
    }
  ],
  "bytecode": "0x608060405234801561001057600080fd5b506000610140604051908101604052806000815260200160008152602001600081526020016000815260200160008152602001600073ffffffffffffffffffffffffffffffffffffffff168152602001600073ffffffffffffffffffffffffffffffffffffffff168152602001600081526020016000815260200160008152509080600181540180825580915050906001820390600052602060002090600a020160009091929091909150600082015181600001556020820151816001015560408201518160020155606082015181600301556080820151816004015560a08201518160050160006101000a81548173ffffffffffffffffffffffffffffffffffffffff021916908373ffffffffffffffffffffffffffffffffffffffff16021790555060c08201518160060160006101000a81548173ffffffffffffffffffffffffffffffffffffffff021916908373ffffffffffffffffffffffffffffffffffffffff16021790555060e0820151816007015561010082015181600801556101208201518160090155505050610880806101ad6000396000f3fe60806040526004361061006d576000357c0100000000000000000000000000000000000000000000000000000000900463ffffffff1680636842c25014610072578063757f532a1461012957806382e7ca23146101a2578063abcd0f181461026c578063b057357914610297575b600080fd5b34801561007e57600080fd5b50610113600480360360e081101561009557600080fd5b8101908080359060200190929190803590602001909291908035906020019092919080359060200190929190803573ffffffffffffffffffffffffffffffffffffffff169060200190929190803573ffffffffffffffffffffffffffffffffffffffff1690602001909291908035906020019092919050505061037d565b6040518082815260200191505060405180910390f35b34801561013557600080fd5b506101626004803603602081101561014c57600080fd5b8101908080359060200190929190505050610577565b6040518088815260200187815260200186815260200185815260200184815260200183815260200182815260200197505050505050505060405180910390f35b3480156101ae57600080fd5b506101db600480360360208110156101c557600080fd5b8101908080359060200190929190505050610681565b604051808781526020018673ffffffffffffffffffffffffffffffffffffffff1673ffffffffffffffffffffffffffffffffffffffff1681526020018573ffffffffffffffffffffffffffffffffffffffff1673ffffffffffffffffffffffffffffffffffffffff168152602001848152602001838152602001828152602001965050505050505060405180910390f35b34801561027857600080fd5b506102816107a5565b6040518082815260200191505060405180910390f35b3480156102a357600080fd5b506102d0600480360360208110156102ba57600080fd5b81019080803590602001909291905050506107b1565b604051808b81526020018a81526020018981526020018881526020018781526020018673ffffffffffffffffffffffffffffffffffffffff1673ffffffffffffffffffffffffffffffffffffffff1681526020018573ffffffffffffffffffffffffffffffffffffffff1673ffffffffffffffffffffffffffffffffffffffff1681526020018481526020018381526020018281526020019a505050505050505050505060405180910390f35b6000808054905090506000610140604051908101604052808381526020018a81526020018981526020018881526020018781526020018673ffffffffffffffffffffffffffffffffffffffff1681526020018573ffffffffffffffffffffffffffffffffffffffff16815260200184815260200160008152602001600184038152509080600181540180825580915050906001820390600052602060002090600a020160009091929091909150600082015181600001556020820151816001015560408201518160020155606082015181600301556080820151816004015560a08201518160050160006101000a81548173ffffffffffffffffffffffffffffffffffffffff021916908373ffffffffffffffffffffffffffffffffffffffff16021790555060c08201518160060160006101000a81548173ffffffffffffffffffffffffffffffffffffffff021916908373ffffffffffffffffffffffffffffffffffffffff16021790555060e08201518160070155610100820151816008015561012082015181600901555050508060006001830381548110151561052057fe5b90600052602060002090600a0201600801819055507fc56bc3c3f07ef03390a445e904bef98f8726182669abf36fd54f8fe19b831f67816040518082815260200191505060405180910390a1979650505050505050565b6000806000806000806000808881548110151561059057fe5b90600052602060002090600a0201600001546000898154811015156105b157fe5b90600052602060002090600a02016001015460008a8154811015156105d257fe5b90600052602060002090600a02016002015460008b8154811015156105f357fe5b90600052602060002090600a02016003015460008c81548110151561061457fe5b90600052602060002090600a02016004015460008d81548110151561063557fe5b90600052602060002090600a02016009015460008e81548110151561065657fe5b90600052602060002090600a0201600801549650965096509650965096509650919395979092949650565b60008060008060008060008781548110151561069957fe5b90600052602060002090600a0201600001546000888154811015156106ba57fe5b90600052602060002090600a020160050160009054906101000a900473ffffffffffffffffffffffffffffffffffffffff166000898154811015156106fb57fe5b90600052602060002090600a020160060160009054906101000a900473ffffffffffffffffffffffffffffffffffffffff1660008a81548110151561073c57fe5b90600052602060002090600a02016007015460008b81548110151561075d57fe5b90600052602060002090600a02016009015460008c81548110151561077e57fe5b90600052602060002090600a02016008015495509550955095509550955091939550919395565b60008080549050905090565b6000818154811015156107c057fe5b90600052602060002090600a02016000915090508060000154908060010154908060020154908060030154908060040154908060050160009054906101000a900473ffffffffffffffffffffffffffffffffffffffff16908060060160009054906101000a900473ffffffffffffffffffffffffffffffffffffffff1690806007015490806008015490806009015490508a56fea165627a7a72305820764e617c5790be2ad4ee1478e188e40bfe65ea9009710a075c4a51835943aa370029",
  "source": "pragma solidity 0.5.0;\r\n \r\n  contract LeasedPropertyContract {\r\n      \r\n     struct LeasedProperty {\r\n        uint id;\r\n        uint mutationId;\r\n        uint propertyId;\r\n        uint leaseStartDate;\r\n        uint leaseEndDate;\r\n        address leasedBy;\r\n        address leasedTo;\r\n        uint taxAmountPerYear;\r\n        uint next;\r\n        uint prev;\r\n    }\r\n        \r\n        LeasedProperty[] public leasedProperties;\r\n        LeasedProperty currentLeasedNode;\r\n        event newIdEvent(uint newID);\r\n        constructor() public {\r\n            // sentinel\r\n            leasedProperties.push(LeasedProperty(0, 0, 0,0,0, address(0),address(0),0,0,0));\r\n        }\r\n\r\n\r\n    function insert(                                                                \r\n        uint _mutationId,\r\n        uint _propertyId,\r\n        uint _leaseStartDate,\r\n        uint _leaseEndDate,\r\n        address _leasedBy,\r\n        address _leasedTo,\r\n        uint _taxAmountPerYear) public returns (uint newID) {\r\n\r\n        newID = leasedProperties.length;\r\n\r\n        leasedProperties.push(LeasedProperty({\r\n                    id:newID,                                                               \r\n                    mutationId:_mutationId,\r\n                    propertyId: _propertyId,\r\n                    leaseStartDate:_leaseStartDate,\r\n                    leaseEndDate:_leaseEndDate,\r\n                    leasedBy:_leasedBy,\r\n                    leasedTo:_leasedTo,\r\n                    taxAmountPerYear:_taxAmountPerYear,\r\n                    prev: newID-1,\r\n                    next: 0\r\n        }));\r\n      leasedProperties[newID-1].next=newID;\r\n        emit newIdEvent(newID);\r\n    }\r\n\r\n    function isValidNode(uint id) internal view returns (bool) {\r\n        // 0 is a sentinel and therefore invalid.\r\n        // A valid node is the head or has a previous node.\r\n        return id != 0 && (id == leasedProperties[0].next || leasedProperties[id].prev != 0);\r\n    }\r\n    \r\n    function getLeasedCount() public view returns(uint) {\r\n      return leasedProperties.length;\r\n    }\r\n\r\n    function getLeasedFirst(uint index) public view returns(uint,\r\n        uint,uint,uint,uint, uint, uint) {\r\n        return (leasedProperties[index].id, \r\n        leasedProperties[index].mutationId,\r\n        leasedProperties[index].propertyId,\r\n        leasedProperties[index].leaseStartDate,\r\n        leasedProperties[index].leaseEndDate,\r\n        leasedProperties[index].prev,\r\n        leasedProperties[index].next);\r\n    }\r\n   function getLeasedSecond(uint index) public view returns(uint,address,address,uint,uint, uint) {\r\n        return (leasedProperties[index].id,\r\n        leasedProperties[index].leasedBy,\r\n        leasedProperties[index].leasedTo,\r\n        leasedProperties[index]. taxAmountPerYear,\r\n        leasedProperties[index].prev, \r\n        leasedProperties[index].next);\r\n    }\r\n\r\n      \r\n}\r\n  \r\n\r\n\r\n",
  "sourcePath": "C:/AsadFiles/RealEstateLedgerFrontEnd/contracts/LeasedPropertyContract.sol",
  "compiler": {
    "name": "solc",
    "version": "0.5.0+commit.1d4f565a.Emscripten.clang"
  },
  "schemaVersion": "3.0.9",
  "updatedAt": "2019-05-24T16:05:47.110Z",
  "devdoc": {
    "methods": {}
  },
  "userdoc": {
    "methods": {}
  }
}