{
  "contractName": "LeasedPropertyContract",
  "abi": [
    {
      "constant": true,
      "inputs": [
        {
          "name": "",
          "type": "uint256"
        }
      ],
      "name": "leasedProperties",
      "outputs": [
        {
          "name": "id",
          "type": "uint256"
        },
        {
          "name": "mutationId",
          "type": "uint256"
        },
        {
          "name": "propertyId",
          "type": "uint256"
        },
        {
          "name": "leaseStartDate",
          "type": "uint256"
        },
        {
          "name": "leaseEndDate",
          "type": "uint256"
        },
        {
          "name": "leasedByPkey",
          "type": "address"
        },
        {
          "name": "leasedByNic",
          "type": "bytes32"
        },
        {
          "name": "leasedToPkey",
          "type": "address"
        },
        {
          "name": "leasedToNic",
          "type": "bytes32"
        },
        {
          "name": "taxAmountPerYear",
          "type": "uint256"
        },
        {
          "name": "next",
          "type": "uint256"
        },
        {
          "name": "prev",
          "type": "uint256"
        }
      ],
      "payable": false,
      "stateMutability": "view",
      "type": "function"
    },
    {
      "inputs": [],
      "payable": false,
      "stateMutability": "nonpayable",
      "type": "constructor"
    },
    {
      "anonymous": false,
      "inputs": [
        {
          "indexed": false,
          "name": "newID",
          "type": "uint256"
        }
      ],
      "name": "newIdEvent",
      "type": "event"
    },
    {
      "constant": false,
      "inputs": [
        {
          "name": "_mutationId",
          "type": "uint256"
        },
        {
          "name": "_propertyId",
          "type": "uint256"
        },
        {
          "name": "_leaseStartDate",
          "type": "uint256"
        },
        {
          "name": "_leaseEndDate",
          "type": "uint256"
        },
        {
          "name": "_leasedByPkey",
          "type": "address"
        },
        {
          "name": "_leasedByNic",
          "type": "bytes32"
        },
        {
          "name": "_leasedToPkey",
          "type": "address"
        },
        {
          "name": "_leasedToNic",
          "type": "bytes32"
        },
        {
          "name": "_taxAmountPerYear",
          "type": "uint256"
        }
      ],
      "name": "insert",
      "outputs": [
        {
          "name": "newID",
          "type": "uint256"
        }
      ],
      "payable": false,
      "stateMutability": "nonpayable",
      "type": "function"
    },
    {
      "constant": true,
      "inputs": [],
      "name": "getLeasedCount",
      "outputs": [
        {
          "name": "",
          "type": "uint256"
        }
      ],
      "payable": false,
      "stateMutability": "view",
      "type": "function"
    },
    {
      "constant": true,
      "inputs": [
        {
          "name": "index",
          "type": "uint256"
        }
      ],
      "name": "getLeasedFirst",
      "outputs": [
        {
          "name": "",
          "type": "uint256"
        },
        {
          "name": "",
          "type": "uint256"
        },
        {
          "name": "",
          "type": "uint256"
        },
        {
          "name": "",
          "type": "uint256"
        },
        {
          "name": "",
          "type": "uint256"
        },
        {
          "name": "",
          "type": "uint256"
        },
        {
          "name": "",
          "type": "uint256"
        }
      ],
      "payable": false,
      "stateMutability": "view",
      "type": "function"
    },
    {
      "constant": true,
      "inputs": [
        {
          "name": "index",
          "type": "uint256"
        }
      ],
      "name": "getLeasedSecond",
      "outputs": [
        {
          "name": "",
          "type": "uint256"
        },
        {
          "name": "",
          "type": "address"
        },
        {
          "name": "",
          "type": "bytes32"
        },
        {
          "name": "",
          "type": "uint256"
        },
        {
          "name": "",
          "type": "uint256"
        },
        {
          "name": "",
          "type": "uint256"
        }
      ],
      "payable": false,
      "stateMutability": "view",
      "type": "function"
    },
    {
      "constant": true,
      "inputs": [
        {
          "name": "index",
          "type": "uint256"
        }
      ],
      "name": "getLeasedThird",
      "outputs": [
        {
          "name": "",
          "type": "uint256"
        },
        {
          "name": "",
          "type": "address"
        },
        {
          "name": "",
          "type": "bytes32"
        },
        {
          "name": "",
          "type": "uint256"
        },
        {
          "name": "",
          "type": "uint256"
        },
        {
          "name": "",
          "type": "uint256"
        }
      ],
      "payable": false,
      "stateMutability": "view",
      "type": "function"
    }
  ],
  "bytecode": "0x608060405234801561001057600080fd5b506000610180604051908101604052806000815260200160008152602001600081526020016000815260200160008152602001600073ffffffffffffffffffffffffffffffffffffffff16815260200160006001028152602001600073ffffffffffffffffffffffffffffffffffffffff16815260200160006001028152602001600081526020016000815260200160008152509080600181540180825580915050906001820390600052602060002090600c020160009091929091909150600082015181600001556020820151816001015560408201518160020155606082015181600301556080820151816004015560a08201518160050160006101000a81548173ffffffffffffffffffffffffffffffffffffffff021916908373ffffffffffffffffffffffffffffffffffffffff16021790555060c0820151816006015560e08201518160070160006101000a81548173ffffffffffffffffffffffffffffffffffffffff021916908373ffffffffffffffffffffffffffffffffffffffff1602179055506101008201518160080155610120820151816009015561014082015181600a015561016082015181600b0155505050610a08806101d76000396000f3fe608060405260043610610078576000357c0100000000000000000000000000000000000000000000000000000000900463ffffffff168063757f532a1461007d57806382e7ca23146100f6578063965e1f101461018d578063abcd0f181461022b578063b057357914610256578063fc7f0cc21461034a575b600080fd5b34801561008957600080fd5b506100b6600480360360208110156100a057600080fd5b8101908080359060200190929190505050610416565b6040518088815260200187815260200186815260200185815260200184815260200183815260200182815260200197505050505050505060405180910390f35b34801561010257600080fd5b5061012f6004803603602081101561011957600080fd5b8101908080359060200190929190505050610520565b604051808681526020018573ffffffffffffffffffffffffffffffffffffffff1673ffffffffffffffffffffffffffffffffffffffff1681526020018481526020018381526020018281526020019550505050505060405180910390f35b34801561019957600080fd5b506101c6600480360360208110156101b057600080fd5b81019080803590602001909291905050506105ff565b604051808781526020018673ffffffffffffffffffffffffffffffffffffffff1673ffffffffffffffffffffffffffffffffffffffff168152602001858152602001848152602001838152602001828152602001965050505050505060405180910390f35b34801561023757600080fd5b50610240610703565b6040518082815260200191505060405180910390f35b34801561026257600080fd5b5061028f6004803603602081101561027957600080fd5b810190808035906020019092919050505061070f565b604051808d81526020018c81526020018b81526020018a81526020018981526020018873ffffffffffffffffffffffffffffffffffffffff1673ffffffffffffffffffffffffffffffffffffffff1681526020018781526020018673ffffffffffffffffffffffffffffffffffffffff1673ffffffffffffffffffffffffffffffffffffffff1681526020018581526020018481526020018381526020018281526020019c5050505050505050505050505060405180910390f35b34801561035657600080fd5b50610400600480360361012081101561036e57600080fd5b8101908080359060200190929190803590602001909291908035906020019092919080359060200190929190803573ffffffffffffffffffffffffffffffffffffffff16906020019092919080359060200190929190803573ffffffffffffffffffffffffffffffffffffffff16906020019092919080359060200190929190803590602001909291905050506107be565b6040518082815260200191505060405180910390f35b6000806000806000806000808881548110151561042f57fe5b90600052602060002090600c02016000015460008981548110151561045057fe5b90600052602060002090600c02016001015460008a81548110151561047157fe5b90600052602060002090600c02016002015460008b81548110151561049257fe5b90600052602060002090600c02016003015460008c8154811015156104b357fe5b90600052602060002090600c02016004015460008d8154811015156104d457fe5b90600052602060002090600c0201600b015460008e8154811015156104f557fe5b90600052602060002090600c0201600a01549650965096509650965096509650919395979092949650565b6000806000806000808681548110151561053657fe5b90600052602060002090600c02016000015460008781548110151561055757fe5b90600052602060002090600c020160050160009054906101000a900473ffffffffffffffffffffffffffffffffffffffff1660008881548110151561059857fe5b90600052602060002090600c0201600601546000898154811015156105b957fe5b90600052602060002090600c0201600b015460008a8154811015156105da57fe5b90600052602060002090600c0201600a01549450945094509450945091939590929450565b60008060008060008060008781548110151561061757fe5b90600052602060002090600c02016000015460008881548110151561063857fe5b90600052602060002090600c020160070160009054906101000a900473ffffffffffffffffffffffffffffffffffffffff1660008981548110151561067957fe5b90600052602060002090600c02016008015460008a81548110151561069a57fe5b90600052602060002090600c02016009015460008b8154811015156106bb57fe5b90600052602060002090600c0201600b015460008c8154811015156106dc57fe5b90600052602060002090600c0201600a015495509550955095509550955091939550919395565b60008080549050905090565b60008181548110151561071e57fe5b90600052602060002090600c02016000915090508060000154908060010154908060020154908060030154908060040154908060050160009054906101000a900473ffffffffffffffffffffffffffffffffffffffff16908060060154908060070160009054906101000a900473ffffffffffffffffffffffffffffffffffffffff169080600801549080600901549080600a01549080600b015490508c565b6000808054905090506000610180604051908101604052808381526020018c81526020018b81526020018a81526020018981526020018873ffffffffffffffffffffffffffffffffffffffff1681526020018781526020018673ffffffffffffffffffffffffffffffffffffffff16815260200185815260200184815260200160008152602001600184038152509080600181540180825580915050906001820390600052602060002090600c020160009091929091909150600082015181600001556020820151816001015560408201518160020155606082015181600301556080820151816004015560a08201518160050160006101000a81548173ffffffffffffffffffffffffffffffffffffffff021916908373ffffffffffffffffffffffffffffffffffffffff16021790555060c0820151816006015560e08201518160070160006101000a81548173ffffffffffffffffffffffffffffffffffffffff021916908373ffffffffffffffffffffffffffffffffffffffff1602179055506101008201518160080155610120820151816009015561014082015181600a015561016082015181600b01555050508060006001830381548110151561098357fe5b90600052602060002090600c0201600a01819055507fc56bc3c3f07ef03390a445e904bef98f8726182669abf36fd54f8fe19b831f67816040518082815260200191505060405180910390a1999850505050505050505056fea165627a7a72305820f9671d0271b6fab393a367296a001b875e76e140b2e6c2458dba54f4fe5f641e0029",
  "source": "pragma solidity 0.5.0;\r\n \r\n  contract LeasedPropertyContract {\r\n      \r\n     struct LeasedProperty {\r\n        uint id;\r\n        uint mutationId;\r\n        uint propertyId;\r\n        uint leaseStartDate;\r\n        uint leaseEndDate;\r\n        address leasedByPkey;\r\n        bytes32 leasedByNic;\r\n        address leasedToPkey;\r\n        bytes32 leasedToNic;\r\n        uint taxAmountPerYear;\r\n        uint next;\r\n        uint prev;\r\n    }\r\n        \r\n        LeasedProperty[] public leasedProperties;\r\n        LeasedProperty currentLeasedNode;\r\n        event newIdEvent(uint newID);\r\n        constructor() public {\r\n            // sentinel\r\n            leasedProperties.push(LeasedProperty(0, 0, 0,0,0, address(0),0x00,address(0),0x00,0,0,0));\r\n        }\r\n\r\n\r\n    function insert(                                                                \r\n        uint _mutationId,\r\n        uint _propertyId,\r\n        uint _leaseStartDate,\r\n        uint _leaseEndDate,\r\n        address _leasedByPkey,\r\n        bytes32 _leasedByNic,\r\n        address _leasedToPkey,\r\n        bytes32 _leasedToNic,\r\n        uint _taxAmountPerYear) public returns (uint newID) {\r\n\r\n        newID = leasedProperties.length;\r\n\r\n        leasedProperties.push(LeasedProperty({\r\n                    id:newID,                                                               \r\n                    mutationId:_mutationId,\r\n                    propertyId: _propertyId,\r\n                    leaseStartDate:_leaseStartDate,\r\n                    leaseEndDate:_leaseEndDate,\r\n                    leasedByPkey:_leasedByPkey,\r\n                    leasedByNic:_leasedByNic,\r\n                    leasedToPkey:_leasedToPkey,\r\n                    leasedToNic:_leasedToNic,\r\n                    taxAmountPerYear:_taxAmountPerYear,\r\n                    prev: newID-1,\r\n                    next: 0\r\n        }));\r\n      leasedProperties[newID-1].next=newID;\r\n        emit newIdEvent(newID);\r\n    }\r\n\r\n    function isValidNode(uint id) internal view returns (bool) {\r\n        // 0 is a sentinel and therefore invalid.\r\n        // A valid node is the head or has a previous node.\r\n        return id != 0 && (id == leasedProperties[0].next || leasedProperties[id].prev != 0);\r\n    }\r\n    \r\n    function getLeasedCount() public view returns(uint) {\r\n      return leasedProperties.length;\r\n    }\r\n\r\n    function getLeasedFirst(uint index) public view returns(uint,\r\n        uint,uint,uint,uint, uint, uint) {\r\n        return (leasedProperties[index].id, \r\n        leasedProperties[index].mutationId,\r\n        leasedProperties[index].propertyId,\r\n        leasedProperties[index].leaseStartDate,\r\n        leasedProperties[index].leaseEndDate,\r\n        leasedProperties[index].prev,\r\n        leasedProperties[index].next);\r\n    }\r\n   function getLeasedSecond(uint index) public view returns(uint,address,bytes32,uint, uint) {\r\n        return (leasedProperties[index].id,\r\n        leasedProperties[index].leasedByPkey,\r\n        leasedProperties[index].leasedByNic,\r\n        leasedProperties[index].prev, \r\n        leasedProperties[index].next);\r\n    }\r\n function getLeasedThird(uint index) public view returns(uint,address,bytes32,uint,uint, uint) {\r\n        return (leasedProperties[index].id,\r\n        leasedProperties[index].leasedToPkey,\r\n        leasedProperties[index].leasedToNic,\r\n        leasedProperties[index].taxAmountPerYear,\r\n        leasedProperties[index].prev, \r\n        leasedProperties[index].next);\r\n    }\r\n     \r\n}",
  "sourcePath": "C:/AsadFiles/final-year-project/real-estate-ledger-frontend/contracts/LeasedPropertyContract.sol",
  "compiler": {
    "name": "solc",
    "version": "0.5.0+commit.1d4f565a.Emscripten.clang"
  },
  "schemaVersion": "3.0.9",
  "updatedAt": "2019-06-05T06:30:32.853Z",
  "devdoc": {
    "methods": {}
  },
  "userdoc": {
    "methods": {}
  }
}