{
  "contractName": "LeasedPropertyTaxContract",
  "abi": [
    {
      "constant": true,
      "inputs": [
        {
          "name": "",
          "type": "uint256"
        }
      ],
      "name": "leasedPropertiesTax",
      "outputs": [
        {
          "name": "id",
          "type": "uint256"
        },
        {
          "name": "leasePropertyId",
          "type": "uint256"
        },
        {
          "name": "amountPaid",
          "type": "uint256"
        },
        {
          "name": "submissionDate",
          "type": "uint256"
        },
        {
          "name": "taxYear",
          "type": "uint256"
        },
        {
          "name": "next",
          "type": "uint256"
        },
        {
          "name": "prev",
          "type": "uint256"
        }
      ],
      "payable": false,
      "stateMutability": "view",
      "type": "function"
    },
    {
      "inputs": [],
      "payable": false,
      "stateMutability": "nonpayable",
      "type": "constructor"
    },
    {
      "anonymous": false,
      "inputs": [
        {
          "indexed": false,
          "name": "newID",
          "type": "uint256"
        }
      ],
      "name": "newIdEvent",
      "type": "event"
    },
    {
      "constant": false,
      "inputs": [
        {
          "name": "_leasePropertyId",
          "type": "uint256"
        },
        {
          "name": "_amountPaid",
          "type": "uint256"
        },
        {
          "name": "_submissionDate",
          "type": "uint256"
        },
        {
          "name": "_taxYear",
          "type": "uint256"
        }
      ],
      "name": "insert",
      "outputs": [
        {
          "name": "newID",
          "type": "uint256"
        }
      ],
      "payable": false,
      "stateMutability": "nonpayable",
      "type": "function"
    },
    {
      "constant": true,
      "inputs": [],
      "name": "getLeasedPropertyTaxCount",
      "outputs": [
        {
          "name": "",
          "type": "uint256"
        }
      ],
      "payable": false,
      "stateMutability": "view",
      "type": "function"
    },
    {
      "constant": true,
      "inputs": [
        {
          "name": "index",
          "type": "uint256"
        }
      ],
      "name": "getLeasedPropertyTax",
      "outputs": [
        {
          "name": "",
          "type": "uint256"
        },
        {
          "name": "",
          "type": "uint256"
        },
        {
          "name": "",
          "type": "uint256"
        },
        {
          "name": "",
          "type": "uint256"
        },
        {
          "name": "",
          "type": "uint256"
        },
        {
          "name": "",
          "type": "uint256"
        },
        {
          "name": "",
          "type": "uint256"
        }
      ],
      "payable": false,
      "stateMutability": "view",
      "type": "function"
    }
  ],
  "bytecode": "0x608060405234801561001057600080fd5b50600060e060405190810160405280600081526020016000815260200160008152602001600081526020016000815260200160008152602001600081525090806001815401808255809150509060018203906000526020600020906007020160009091929091909150600082015181600001556020820151816001015560408201518160020155606082015181600301556080820151816004015560a0820151816005015560c082015181600601555050506104a2806100d16000396000f3fe608060405260043610610062576000357c0100000000000000000000000000000000000000000000000000000000900463ffffffff1680630cbc139f146100675780636744105114610092578063843aa0db1461010b578063a4f6f86914610178575b600080fd5b34801561007357600080fd5b5061007c6101f1565b6040518082815260200191505060405180910390f35b34801561009e57600080fd5b506100cb600480360360208110156100b557600080fd5b81019080803590602001909291905050506101fd565b6040518088815260200187815260200186815260200185815260200184815260200183815260200182815260200197505050505050505060405180910390f35b34801561011757600080fd5b506101626004803603608081101561012e57600080fd5b8101908080359060200190929190803590602001909291908035906020019092919080359060200190929190505050610307565b6040518082815260200191505060405180910390f35b34801561018457600080fd5b506101b16004803603602081101561019b57600080fd5b8101908080359060200190929190505050610425565b6040518088815260200187815260200186815260200185815260200184815260200183815260200182815260200197505050505050505060405180910390f35b60008080549050905090565b6000806000806000806000808881548110151561021657fe5b90600052602060002090600702016000015460008981548110151561023757fe5b90600052602060002090600702016001015460008a81548110151561025857fe5b90600052602060002090600702016002015460008b81548110151561027957fe5b90600052602060002090600702016003015460008c81548110151561029a57fe5b90600052602060002090600702016004015460008d8154811015156102bb57fe5b90600052602060002090600702016006015460008e8154811015156102dc57fe5b9060005260206000209060070201600501549650965096509650965096509650919395979092949650565b600080805490509050600060e060405190810160405280838152602001878152602001868152602001858152602001848152602001600081526020016001840381525090806001815401808255809150509060018203906000526020600020906007020160009091929091909150600082015181600001556020820151816001015560408201518160020155606082015181600301556080820151816004015560a0820151816005015560c08201518160060155505050806000600183038154811015156103d157fe5b9060005260206000209060070201600501819055507fc56bc3c3f07ef03390a445e904bef98f8726182669abf36fd54f8fe19b831f67816040518082815260200191505060405180910390a1949350505050565b60008181548110151561043457fe5b9060005260206000209060070201600091509050806000015490806001015490806002015490806003015490806004015490806005015490806006015490508756fea165627a7a72305820892a8b200573146a6b8532d047ddf29ea037147eea0352043120b02d6d905f5a0029",
  "source": "pragma solidity 0.5.0;\r\n \r\n  contract LeasedPropertyTaxContract {\r\n      \r\n     struct LeasedPropertyTax {\r\n        uint id;\r\n        uint leasePropertyId;\r\n        uint amountPaid;\r\n        uint submissionDate;\r\n        uint taxYear;\r\n        uint next;\r\n        uint prev;\r\n    }\r\n        \r\n        LeasedPropertyTax[] public leasedPropertiesTax;\r\n        LeasedPropertyTax currentLeasedNode;\r\n        event newIdEvent(uint newID);\r\n        constructor() public {\r\n            // sentinel\r\n            leasedPropertiesTax.push(LeasedPropertyTax(0, 0, 0,0,0,0,0));\r\n        }\r\n\r\n\r\n    function insert(                                                                \r\n        uint _leasePropertyId,\r\n        uint _amountPaid,\r\n        uint _submissionDate,\r\n        uint _taxYear) public returns (uint newID) {\r\n\r\n        newID = leasedPropertiesTax.length;\r\n\r\n        leasedPropertiesTax.push(LeasedPropertyTax({\r\n                    id:newID,                                                               \r\n                    leasePropertyId:_leasePropertyId ,\r\n                    amountPaid:_amountPaid,\r\n                    submissionDate:_submissionDate,\r\n                    taxYear:_taxYear,\r\n                    prev: newID-1,\r\n                    next: 0\r\n        }));\r\n      leasedPropertiesTax[newID-1].next=newID;\r\n      emit newIdEvent(newID);\r\n    }\r\n\r\n    function isValidNode(uint id) internal view returns (bool) {\r\n        // 0 is a sentinel and therefore invalid.\r\n        // A valid node is the head or has a previous node.\r\n        return id != 0 && (id == leasedPropertiesTax[0].next || leasedPropertiesTax[id].prev != 0);\r\n    }\r\n    \r\n    function getLeasedPropertyTaxCount() public view returns(uint) {\r\n      return leasedPropertiesTax.length;\r\n    }\r\n\r\n    function getLeasedPropertyTax(uint index) public view returns(uint,\r\n        uint,uint,uint,uint, uint, uint) {\r\n        return (leasedPropertiesTax[index].id, \r\n        leasedPropertiesTax[index].leasePropertyId,\r\n        leasedPropertiesTax[index].amountPaid,\r\n        leasedPropertiesTax[index].submissionDate,\r\n        leasedPropertiesTax[index].taxYear,\r\n        leasedPropertiesTax[index].prev,\r\n        leasedPropertiesTax[index].next);\r\n    }\r\n      \r\n}\r\n  \r\n\r\n\r\n",
  "sourcePath": "C:/AsadFiles/final-year-project/real-estate-ledger-frontend/contracts/LeasedPropertyTaxContract.sol",
  "compiler": {
    "name": "solc",
    "version": "0.5.0+commit.1d4f565a.Emscripten.clang"
  },
  "schemaVersion": "3.0.9",
  "updatedAt": "2019-06-02T16:02:10.154Z",
  "devdoc": {
    "methods": {}
  },
  "userdoc": {
    "methods": {}
  }
}