{
  "contractName": "MutationContract",
  "abi": [
    {
      "constant": true,
      "inputs": [
        {
          "name": "",
          "type": "uint256"
        }
      ],
      "name": "mutations",
      "outputs": [
        {
          "name": "id",
          "type": "uint256"
        },
        {
          "name": "signDeedId",
          "type": "uint256"
        },
        {
          "name": "propertyId",
          "type": "uint256"
        },
        {
          "name": "mutatedOn",
          "type": "uint256"
        },
        {
          "name": "latest",
          "type": "uint256"
        },
        {
          "name": "mutatedByPkey",
          "type": "address"
        },
        {
          "name": "mutatedByNic",
          "type": "bytes32"
        },
        {
          "name": "mutatedByFullName",
          "type": "bytes32"
        },
        {
          "name": "newOwnerPkey",
          "type": "address"
        },
        {
          "name": "newOwnerNic",
          "type": "bytes32"
        },
        {
          "name": "newOwnerFullName",
          "type": "bytes32"
        },
        {
          "name": "next",
          "type": "uint256"
        },
        {
          "name": "prev",
          "type": "uint256"
        }
      ],
      "payable": false,
      "stateMutability": "view",
      "type": "function"
    },
    {
      "inputs": [],
      "payable": false,
      "stateMutability": "nonpayable",
      "type": "constructor"
    },
    {
      "anonymous": false,
      "inputs": [
        {
          "indexed": false,
          "name": "newID",
          "type": "uint256"
        }
      ],
      "name": "newIdEvent",
      "type": "event"
    },
    {
      "anonymous": false,
      "inputs": [
        {
          "indexed": false,
          "name": "updatedId",
          "type": "uint256"
        }
      ],
      "name": "updateMutationUpdateIdEvent",
      "type": "event"
    },
    {
      "constant": false,
      "inputs": [
        {
          "name": "_signDeedId",
          "type": "uint256"
        },
        {
          "name": "_propertyId",
          "type": "uint256"
        },
        {
          "name": "_mutatedOn",
          "type": "uint256"
        },
        {
          "name": "_mutatedByPkey",
          "type": "address"
        },
        {
          "name": "_mutatedByNic",
          "type": "bytes32"
        },
        {
          "name": "_mutatedByFullName",
          "type": "bytes32"
        },
        {
          "name": "_newOwnerPkey",
          "type": "address"
        },
        {
          "name": "_newOwnerNic",
          "type": "bytes32"
        },
        {
          "name": "_newOwnerFullName",
          "type": "bytes32"
        }
      ],
      "name": "insert",
      "outputs": [
        {
          "name": "newID",
          "type": "uint256"
        }
      ],
      "payable": false,
      "stateMutability": "nonpayable",
      "type": "function"
    },
    {
      "constant": false,
      "inputs": [
        {
          "name": "_id",
          "type": "uint256"
        }
      ],
      "name": "markMutationOld",
      "outputs": [
        {
          "name": "updatedId",
          "type": "uint256"
        }
      ],
      "payable": false,
      "stateMutability": "nonpayable",
      "type": "function"
    },
    {
      "constant": true,
      "inputs": [],
      "name": "getMutationCount",
      "outputs": [
        {
          "name": "",
          "type": "uint256"
        }
      ],
      "payable": false,
      "stateMutability": "view",
      "type": "function"
    },
    {
      "constant": true,
      "inputs": [
        {
          "name": "index",
          "type": "uint256"
        }
      ],
      "name": "getMutationFirst",
      "outputs": [
        {
          "name": "",
          "type": "uint256"
        },
        {
          "name": "",
          "type": "uint256"
        },
        {
          "name": "",
          "type": "uint256"
        },
        {
          "name": "",
          "type": "uint256"
        },
        {
          "name": "",
          "type": "uint256"
        },
        {
          "name": "",
          "type": "uint256"
        },
        {
          "name": "",
          "type": "uint256"
        }
      ],
      "payable": false,
      "stateMutability": "view",
      "type": "function"
    },
    {
      "constant": true,
      "inputs": [
        {
          "name": "index",
          "type": "uint256"
        }
      ],
      "name": "getMutationSecond",
      "outputs": [
        {
          "name": "",
          "type": "uint256"
        },
        {
          "name": "",
          "type": "address"
        },
        {
          "name": "",
          "type": "bytes32"
        },
        {
          "name": "",
          "type": "bytes32"
        },
        {
          "name": "",
          "type": "uint256"
        },
        {
          "name": "",
          "type": "uint256"
        }
      ],
      "payable": false,
      "stateMutability": "view",
      "type": "function"
    },
    {
      "constant": true,
      "inputs": [
        {
          "name": "index",
          "type": "uint256"
        }
      ],
      "name": "getMutationThird",
      "outputs": [
        {
          "name": "",
          "type": "uint256"
        },
        {
          "name": "",
          "type": "address"
        },
        {
          "name": "",
          "type": "bytes32"
        },
        {
          "name": "",
          "type": "bytes32"
        },
        {
          "name": "",
          "type": "uint256"
        },
        {
          "name": "",
          "type": "uint256"
        }
      ],
      "payable": false,
      "stateMutability": "view",
      "type": "function"
    }
  ],
  "bytecode": "0x608060405234801561001057600080fd5b5060006101a0604051908101604052806000815260200160008152602001600081526020016000815260200160008152602001600073ffffffffffffffffffffffffffffffffffffffff1681526020016000600102815260200160006001028152602001600073ffffffffffffffffffffffffffffffffffffffff16815260200160006001028152602001600060010281526020016000815260200160008152509080600181540180825580915050906001820390600052602060002090600d020160009091929091909150600082015181600001556020820151816001015560408201518160020155606082015181600301556080820151816004015560a08201518160050160006101000a81548173ffffffffffffffffffffffffffffffffffffffff021916908373ffffffffffffffffffffffffffffffffffffffff16021790555060c0820151816006015560e082015181600701556101008201518160080160006101000a81548173ffffffffffffffffffffffffffffffffffffffff021916908373ffffffffffffffffffffffffffffffffffffffff160217905550610120820151816009015561014082015181600a015561016082015181600b015561018082015181600c0155505050610e0e806101ef6000396000f3fe608060405260043610610082576000357c0100000000000000000000000000000000000000000000000000000000900463ffffffff168062a2ba18146100875780630fdfb3cd146101005780631a88c93c1461019e5780636c32015b146101c95780637e22a2b4146102c4578063b005f3c014610313578063fd3ada43146103b1575b600080fd5b34801561009357600080fd5b506100c0600480360360208110156100aa57600080fd5b810190808035906020019092919050505061047d565b6040518088815260200187815260200186815260200185815260200184815260200183815260200182815260200197505050505050505060405180910390f35b34801561010c57600080fd5b506101396004803603602081101561012357600080fd5b8101908080359060200190929190505050610587565b604051808781526020018673ffffffffffffffffffffffffffffffffffffffff1673ffffffffffffffffffffffffffffffffffffffff168152602001858152602001848152602001838152602001828152602001965050505050505060405180910390f35b3480156101aa57600080fd5b506101b361068b565b6040518082815260200191505060405180910390f35b3480156101d557600080fd5b50610202600480360360208110156101ec57600080fd5b8101908080359060200190929190505050610697565b604051808e81526020018d81526020018c81526020018b81526020018a81526020018973ffffffffffffffffffffffffffffffffffffffff1673ffffffffffffffffffffffffffffffffffffffff1681526020018881526020018781526020018673ffffffffffffffffffffffffffffffffffffffff1673ffffffffffffffffffffffffffffffffffffffff1681526020018581526020018481526020018381526020018281526020019d505050505050505050505050505060405180910390f35b3480156102d057600080fd5b506102fd600480360360208110156102e757600080fd5b810190808035906020019092919050505061074c565b6040518082815260200191505060405180910390f35b34801561031f57600080fd5b5061034c6004803603602081101561033657600080fd5b8101908080359060200190929190505050610a0d565b604051808781526020018673ffffffffffffffffffffffffffffffffffffffff1673ffffffffffffffffffffffffffffffffffffffff168152602001858152602001848152602001838152602001828152602001965050505050505060405180910390f35b3480156103bd57600080fd5b5061046760048036036101208110156103d557600080fd5b81019080803590602001909291908035906020019092919080359060200190929190803573ffffffffffffffffffffffffffffffffffffffff1690602001909291908035906020019092919080359060200190929190803573ffffffffffffffffffffffffffffffffffffffff1690602001909291908035906020019092919080359060200190929190505050610b11565b6040518082815260200191505060405180910390f35b6000806000806000806000808881548110151561049657fe5b90600052602060002090600d0201600001546000898154811015156104b757fe5b90600052602060002090600d02016001015460008a8154811015156104d857fe5b90600052602060002090600d02016002015460008b8154811015156104f957fe5b90600052602060002090600d02016003015460008c81548110151561051a57fe5b90600052602060002090600d02016004015460008d81548110151561053b57fe5b90600052602060002090600d0201600c015460008e81548110151561055c57fe5b90600052602060002090600d0201600b01549650965096509650965096509650919395979092949650565b60008060008060008060008781548110151561059f57fe5b90600052602060002090600d0201600001546000888154811015156105c057fe5b90600052602060002090600d020160050160009054906101000a900473ffffffffffffffffffffffffffffffffffffffff1660008981548110151561060157fe5b90600052602060002090600d02016006015460008a81548110151561062257fe5b90600052602060002090600d02016007015460008b81548110151561064357fe5b90600052602060002090600d0201600c015460008c81548110151561066457fe5b90600052602060002090600d0201600b015495509550955095509550955091939550919395565b60008080549050905090565b6000818154811015156106a657fe5b90600052602060002090600d02016000915090508060000154908060010154908060020154908060030154908060040154908060050160009054906101000a900473ffffffffffffffffffffffffffffffffffffffff16908060060154908060070154908060080160009054906101000a900473ffffffffffffffffffffffffffffffffffffffff169080600901549080600a01549080600b01549080600c015490508d565b6000610756610d41565b60008381548110151561076557fe5b90600052602060002090600d02016101a0604051908101604052908160008201548152602001600182015481526020016002820154815260200160038201548152602001600482015481526020016005820160009054906101000a900473ffffffffffffffffffffffffffffffffffffffff1673ffffffffffffffffffffffffffffffffffffffff1673ffffffffffffffffffffffffffffffffffffffff16815260200160068201548152602001600782015481526020016008820160009054906101000a900473ffffffffffffffffffffffffffffffffffffffff1673ffffffffffffffffffffffffffffffffffffffff1673ffffffffffffffffffffffffffffffffffffffff16815260200160098201548152602001600a8201548152602001600b8201548152602001600c8201548152505090506000816080018181525050806000848154811015156108b757fe5b90600052602060002090600d0201600082015181600001556020820151816001015560408201518160020155606082015181600301556080820151816004015560a08201518160050160006101000a81548173ffffffffffffffffffffffffffffffffffffffff021916908373ffffffffffffffffffffffffffffffffffffffff16021790555060c0820151816006015560e082015181600701556101008201518160080160006101000a81548173ffffffffffffffffffffffffffffffffffffffff021916908373ffffffffffffffffffffffffffffffffffffffff160217905550610120820151816009015561014082015181600a015561016082015181600b015561018082015181600c0155905050806000015191507fe1521ed005022e2ea050a2209d28532166cf257bce2e77c3aeba43fac7dfc94d826040518082815260200191505060405180910390a150919050565b600080600080600080600087815481101515610a2557fe5b90600052602060002090600d020160000154600088815481101515610a4657fe5b90600052602060002090600d020160080160009054906101000a900473ffffffffffffffffffffffffffffffffffffffff16600089815481101515610a8757fe5b90600052602060002090600d02016009015460008a815481101515610aa857fe5b90600052602060002090600d0201600a015460008b815481101515610ac957fe5b90600052602060002090600d0201600c015460008c815481101515610aea57fe5b90600052602060002090600d0201600b015495509550955095509550955091939550919395565b60008080549050905060006101a0604051908101604052808381526020018c81526020018b81526020018a8152602001600181526020018973ffffffffffffffffffffffffffffffffffffffff1681526020018881526020018781526020018673ffffffffffffffffffffffffffffffffffffffff16815260200185815260200184815260200160008152602001600184038152509080600181540180825580915050906001820390600052602060002090600d020160009091929091909150600082015181600001556020820151816001015560408201518160020155606082015181600301556080820151816004015560a08201518160050160006101000a81548173ffffffffffffffffffffffffffffffffffffffff021916908373ffffffffffffffffffffffffffffffffffffffff16021790555060c0820151816006015560e082015181600701556101008201518160080160006101000a81548173ffffffffffffffffffffffffffffffffffffffff021916908373ffffffffffffffffffffffffffffffffffffffff160217905550610120820151816009015561014082015181600a015561016082015181600b015561018082015181600c015550505080600060018303815481101515610ce857fe5b90600052602060002090600d0201600b01819055507fc56bc3c3f07ef03390a445e904bef98f8726182669abf36fd54f8fe19b831f67816040518082815260200191505060405180910390a19998505050505050505050565b6101a0604051908101604052806000815260200160008152602001600081526020016000815260200160008152602001600073ffffffffffffffffffffffffffffffffffffffff1681526020016000801916815260200160008019168152602001600073ffffffffffffffffffffffffffffffffffffffff16815260200160008019168152602001600080191681526020016000815260200160008152509056fea165627a7a72305820486cd6d00cfc8e89f7503bae4e15cf33e67dcdc962468c5eddbd38237b0513710029",
  "source": "pragma solidity 0.5.0;\r\n \r\n  contract MutationContract {\r\n      \r\n     struct Mutation {\r\n        uint id;\r\n        uint signDeedId;\r\n        uint propertyId;\r\n        uint mutatedOn;\r\n        uint latest;\r\n        address mutatedByPkey;\r\n        bytes32 mutatedByNic;\r\n        bytes32 mutatedByFullName;\r\n        address newOwnerPkey;\r\n        bytes32 newOwnerNic;\r\n        bytes32 newOwnerFullName;\r\n        uint next;\r\n        uint prev;\r\n    }\r\n        \r\n        Mutation[] public mutations;\r\n        Mutation currentMutationNode;\r\n        event newIdEvent(uint newID);\r\n        event updateMutationUpdateIdEvent(uint updatedId);\r\n        constructor() public {\r\n            // sentinel\r\n            mutations.push(Mutation(0,0,0,0,0,address(0),0x00,0x00,address(0),0x00,0x00,0,0));\r\n        }\r\n\r\n\r\n    function insert(                                                                \r\n        uint _signDeedId,\r\n        uint _propertyId,\r\n        uint _mutatedOn,\r\n        address _mutatedByPkey,\r\n        bytes32 _mutatedByNic,\r\n        bytes32 _mutatedByFullName,\r\n        address _newOwnerPkey,\r\n        bytes32 _newOwnerNic,\r\n        bytes32 _newOwnerFullName) public returns (uint newID) {\r\n\r\n        newID = mutations.length;\r\n\r\n        mutations.push(Mutation({\r\n                    id:newID,                                                               \r\n                    signDeedId:_signDeedId,\r\n                    propertyId: _propertyId,\r\n                    mutatedOn:_mutatedOn,\r\n                    latest:1,\r\n                    mutatedByPkey: _mutatedByPkey,\r\n                    mutatedByNic: _mutatedByNic,\r\n                    mutatedByFullName: _mutatedByFullName,\r\n                    newOwnerPkey: _newOwnerPkey,\r\n                    newOwnerNic: _newOwnerNic,\r\n                    newOwnerFullName: _newOwnerFullName,\r\n                    prev: newID-1,\r\n                    next: 0\r\n        }));\r\n      mutations[newID-1].next=newID;\r\n        emit newIdEvent(newID);\r\n    }\r\n\r\n \r\n    function markMutationOld(uint _id)  public returns (uint updatedId) {\r\n      Mutation memory mutation = mutations[_id];\r\n      mutation.latest = 0;\r\n      mutations[_id] = mutation;\r\n      updatedId = mutation.id;\r\n      emit updateMutationUpdateIdEvent(updatedId);\r\n    }\r\n\r\n    function isValidNode(uint id) internal view returns (bool) {\r\n        // 0 is a sentinel and therefore invalid.\r\n        // A valid node is the head or has a previous node.\r\n        return id != 0 && (id == mutations[0].next || mutations[id].prev != 0);\r\n    }\r\n    \r\n    function getMutationCount() public view returns(uint) {\r\n      return mutations.length;\r\n    }\r\n\r\n    function getMutationFirst(uint index) public view returns(uint,\r\n        uint,uint,uint,uint,uint, uint) {\r\n        return (mutations[index].id, \r\n        mutations[index].signDeedId,\r\n        mutations[index].propertyId,\r\n        mutations[index].mutatedOn,\r\n        mutations[index].latest,\r\n        mutations[index].prev, \r\n        mutations[index].next);\r\n    }\r\n   function getMutationSecond(uint index) public view returns(uint,\r\n        address,bytes32,bytes32,uint, uint) {\r\n        return (mutations[index].id, \r\n        mutations[index].mutatedByPkey,\r\n        mutations[index].mutatedByNic,\r\n        mutations[index].mutatedByFullName,\r\n        mutations[index].prev, \r\n        mutations[index].next);\r\n    }\r\n    \r\n    function getMutationThird(uint index) public view returns(uint,\r\n        address,bytes32,bytes32,uint, uint) {\r\n        return (mutations[index].id, \r\n        mutations[index].newOwnerPkey,\r\n        mutations[index].newOwnerNic,\r\n        mutations[index].newOwnerFullName,\r\n        mutations[index].prev, \r\n        mutations[index].next);\r\n    }\r\n\r\n      \r\n}\r\n  \r\n\r\n\r\n",
  "sourcePath": "C:/AsadFiles/RealEstateLedgerFrontEnd/contracts/MutationContract.sol",
  "compiler": {
    "name": "solc",
    "version": "0.5.0+commit.1d4f565a.Emscripten.clang"
  },
  "schemaVersion": "3.0.9",
  "updatedAt": "2019-06-09T18:49:00.637Z",
  "devdoc": {
    "methods": {}
  },
  "userdoc": {
    "methods": {}
  }
}