{
  "contractName": "MutationContract",
  "abi": [
    {
      "constant": true,
      "inputs": [
        {
          "name": "",
          "type": "uint256"
        }
      ],
      "name": "mutations",
      "outputs": [
        {
          "name": "id",
          "type": "uint256"
        },
        {
          "name": "saleDeedId",
          "type": "uint256"
        },
        {
          "name": "propertyId",
          "type": "uint256"
        },
        {
          "name": "oldOwnerFullName",
          "type": "bytes32"
        },
        {
          "name": "oldOwnerNic",
          "type": "bytes32"
        },
        {
          "name": "newOwnerFullName",
          "type": "bytes32"
        },
        {
          "name": "newOwnerNic",
          "type": "bytes32"
        },
        {
          "name": "mutatedBy",
          "type": "address"
        },
        {
          "name": "next",
          "type": "uint256"
        },
        {
          "name": "prev",
          "type": "uint256"
        }
      ],
      "payable": false,
      "stateMutability": "view",
      "type": "function"
    },
    {
      "inputs": [],
      "payable": false,
      "stateMutability": "nonpayable",
      "type": "constructor"
    },
    {
      "anonymous": false,
      "inputs": [
        {
          "indexed": false,
          "name": "newID",
          "type": "uint256"
        }
      ],
      "name": "newIdEvent",
      "type": "event"
    },
    {
      "constant": false,
      "inputs": [
        {
          "name": "_saleDeedId",
          "type": "uint256"
        },
        {
          "name": "_propertyId",
          "type": "uint256"
        },
        {
          "name": "_oldOwnerFullName",
          "type": "bytes32"
        },
        {
          "name": "_oldOwnerNic",
          "type": "bytes32"
        },
        {
          "name": "_newOwnerFullName",
          "type": "bytes32"
        },
        {
          "name": "_newOwnerNic",
          "type": "bytes32"
        },
        {
          "name": "_mutatedBy",
          "type": "address"
        }
      ],
      "name": "insert",
      "outputs": [
        {
          "name": "newID",
          "type": "uint256"
        }
      ],
      "payable": false,
      "stateMutability": "nonpayable",
      "type": "function"
    },
    {
      "constant": true,
      "inputs": [],
      "name": "getMutationCount",
      "outputs": [
        {
          "name": "",
          "type": "uint256"
        }
      ],
      "payable": false,
      "stateMutability": "view",
      "type": "function"
    },
    {
      "constant": true,
      "inputs": [
        {
          "name": "index",
          "type": "uint256"
        }
      ],
      "name": "getMutationFirst",
      "outputs": [
        {
          "name": "",
          "type": "uint256"
        },
        {
          "name": "",
          "type": "uint256"
        },
        {
          "name": "",
          "type": "uint256"
        },
        {
          "name": "",
          "type": "bytes32"
        },
        {
          "name": "",
          "type": "bytes32"
        },
        {
          "name": "",
          "type": "uint256"
        },
        {
          "name": "",
          "type": "uint256"
        }
      ],
      "payable": false,
      "stateMutability": "view",
      "type": "function"
    },
    {
      "constant": true,
      "inputs": [
        {
          "name": "index",
          "type": "uint256"
        }
      ],
      "name": "getMutationSecond",
      "outputs": [
        {
          "name": "",
          "type": "uint256"
        },
        {
          "name": "",
          "type": "bytes32"
        },
        {
          "name": "",
          "type": "bytes32"
        },
        {
          "name": "",
          "type": "address"
        },
        {
          "name": "",
          "type": "uint256"
        },
        {
          "name": "",
          "type": "uint256"
        }
      ],
      "payable": false,
      "stateMutability": "view",
      "type": "function"
    }
  ],
  "bytecode": "0x608060405234801561001057600080fd5b5060006101406040519081016040528060008152602001600081526020016000815260200160006001028152602001600060010281526020016000600102815260200160006001028152602001600073ffffffffffffffffffffffffffffffffffffffff1681526020016000815260200160008152509080600181540180825580915050906001820390600052602060002090600a020160009091929091909150600082015181600001556020820151816001015560408201518160020155606082015181600301556080820151816004015560a0820151816005015560c0820151816006015560e08201518160070160006101000a81548173ffffffffffffffffffffffffffffffffffffffff021916908373ffffffffffffffffffffffffffffffffffffffff1602179055506101008201518160080155610120820151816009015550505061077e806101666000396000f3fe60806040526004361061006c576000357c0100000000000000000000000000000000000000000000000000000000900463ffffffff168062a2ba18146100715780630fdfb3cd146100ea5780631a88c93c146101885780636c32015b146101b35780638d9918ad1461026d575b600080fd5b34801561007d57600080fd5b506100aa6004803603602081101561009457600080fd5b810190808035906020019092919050505061030e565b6040518088815260200187815260200186815260200185815260200184815260200183815260200182815260200197505050505050505060405180910390f35b3480156100f657600080fd5b506101236004803603602081101561010d57600080fd5b8101908080359060200190929190505050610418565b604051808781526020018681526020018581526020018473ffffffffffffffffffffffffffffffffffffffff1673ffffffffffffffffffffffffffffffffffffffff168152602001838152602001828152602001965050505050505060405180910390f35b34801561019457600080fd5b5061019d61051c565b6040518082815260200191505060405180910390f35b3480156101bf57600080fd5b506101ec600480360360208110156101d657600080fd5b8101908080359060200190929190505050610528565b604051808b81526020018a81526020018981526020018881526020018781526020018681526020018581526020018473ffffffffffffffffffffffffffffffffffffffff1673ffffffffffffffffffffffffffffffffffffffff1681526020018381526020018281526020019a505050505050505050505060405180910390f35b34801561027957600080fd5b506102f8600480360360e081101561029057600080fd5b81019080803590602001909291908035906020019092919080359060200190929190803590602001909291908035906020019092919080359060200190929190803573ffffffffffffffffffffffffffffffffffffffff1690602001909291905050506105ab565b6040518082815260200191505060405180910390f35b6000806000806000806000808881548110151561032757fe5b90600052602060002090600a02016000015460008981548110151561034857fe5b90600052602060002090600a02016001015460008a81548110151561036957fe5b90600052602060002090600a02016002015460008b81548110151561038a57fe5b90600052602060002090600a02016003015460008c8154811015156103ab57fe5b90600052602060002090600a02016004015460008d8154811015156103cc57fe5b90600052602060002090600a02016009015460008e8154811015156103ed57fe5b90600052602060002090600a0201600801549650965096509650965096509650919395979092949650565b60008060008060008060008781548110151561043057fe5b90600052602060002090600a02016000015460008881548110151561045157fe5b90600052602060002090600a02016005015460008981548110151561047257fe5b90600052602060002090600a02016006015460008a81548110151561049357fe5b90600052602060002090600a020160070160009054906101000a900473ffffffffffffffffffffffffffffffffffffffff1660008b8154811015156104d457fe5b90600052602060002090600a02016009015460008c8154811015156104f557fe5b90600052602060002090600a02016008015495509550955095509550955091939550919395565b60008080549050905090565b60008181548110151561053757fe5b90600052602060002090600a02016000915090508060000154908060010154908060020154908060030154908060040154908060050154908060060154908060070160009054906101000a900473ffffffffffffffffffffffffffffffffffffffff1690806008015490806009015490508a565b6000808054905090506000610140604051908101604052808381526020018a81526020018981526020018881526020018781526020018681526020018581526020018473ffffffffffffffffffffffffffffffffffffffff16815260200160008152602001600184038152509080600181540180825580915050906001820390600052602060002090600a020160009091929091909150600082015181600001556020820151816001015560408201518160020155606082015181600301556080820151816004015560a0820151816005015560c0820151816006015560e08201518160070160006101000a81548173ffffffffffffffffffffffffffffffffffffffff021916908373ffffffffffffffffffffffffffffffffffffffff16021790555061010082015181600801556101208201518160090155505050806000600183038154811015156106fb57fe5b90600052602060002090600a0201600801819055507fc56bc3c3f07ef03390a445e904bef98f8726182669abf36fd54f8fe19b831f67816040518082815260200191505060405180910390a197965050505050505056fea165627a7a723058200b98b628e28ae07a943e091c730bd1920fb50d08485d430a5cb0cc36f492aa7a0029",
  "source": "pragma solidity 0.5.0;\r\n \r\n  contract MutationContract {\r\n      \r\n     struct Mutation {\r\n        uint id;\r\n        uint saleDeedId;\r\n        uint propertyId;\r\n        bytes32 oldOwnerFullName;\r\n        bytes32 oldOwnerNic;\r\n        bytes32 newOwnerFullName;\r\n        bytes32 newOwnerNic;\r\n        address mutatedBy;\r\n        uint next;\r\n        uint prev;\r\n    }\r\n        \r\n        Mutation[] public mutations;\r\n        Mutation currentMutationNode;\r\n        event newIdEvent(uint newID);\r\n        constructor() public {\r\n            // sentinel\r\n            mutations.push(Mutation(0, 0, 0,0x00,0x00, 0x00,0x00,address(0),0,0));\r\n        }\r\n\r\n\r\n    function insert(                                                                \r\n        uint _saleDeedId,\r\n        uint _propertyId,\r\n        bytes32 _oldOwnerFullName,\r\n        bytes32 _oldOwnerNic,\r\n        bytes32 _newOwnerFullName,\r\n        bytes32 _newOwnerNic,\r\n        address _mutatedBy) public returns (uint newID) {\r\n\r\n        newID = mutations.length;\r\n\r\n        mutations.push(Mutation({\r\n                    id:newID,                                                               \r\n                    saleDeedId:_saleDeedId,\r\n                    propertyId: _propertyId,\r\n                    oldOwnerFullName:_oldOwnerFullName,\r\n                    oldOwnerNic:_oldOwnerNic,\r\n                    newOwnerFullName:_newOwnerFullName,\r\n                    newOwnerNic:_newOwnerNic,\r\n                    mutatedBy:_mutatedBy,\r\n                    prev: newID-1,\r\n                    next: 0\r\n        }));\r\n      mutations[newID-1].next=newID;\r\n        emit newIdEvent(newID);\r\n    }\r\n\r\n    function isValidNode(uint id) internal view returns (bool) {\r\n        // 0 is a sentinel and therefore invalid.\r\n        // A valid node is the head or has a previous node.\r\n        return id != 0 && (id == mutations[0].next || mutations[id].prev != 0);\r\n    }\r\n    \r\n    function getMutationCount() public view returns(uint) {\r\n      return mutations.length;\r\n    }\r\n\r\n    function getMutationFirst(uint index) public view returns(uint,\r\n        uint,uint,bytes32,bytes32,uint, uint) {\r\n        return (mutations[index].id, \r\n        mutations[index]. saleDeedId,\r\n        mutations[index]. propertyId,\r\n        mutations[index]. oldOwnerFullName,\r\n        mutations[index]. oldOwnerNic,\r\n        mutations[index].prev, \r\n        mutations[index].next);\r\n    }\r\n   function getMutationSecond(uint index) public view returns(uint,\r\n        bytes32,bytes32,address,uint, uint) {\r\n        return (mutations[index].id, \r\n        mutations[index]. newOwnerFullName,\r\n        mutations[index]. newOwnerNic,\r\n        mutations[index]. mutatedBy,\r\n        mutations[index].prev, \r\n        mutations[index].next);\r\n    }\r\n\r\n      \r\n}\r\n  \r\n\r\n\r\n",
  "sourcePath": "C:/AsadFiles/RealEstateLedgerFrontEnd/contracts/MutationContract.sol",
  "compiler": {
    "name": "solc",
    "version": "0.5.0+commit.1d4f565a.Emscripten.clang"
  },
  "schemaVersion": "3.0.9",
  "updatedAt": "2019-05-24T16:05:47.149Z",
  "devdoc": {
    "methods": {}
  },
  "userdoc": {
    "methods": {}
  }
}