{
  "contractName": "MutationContract",
  "abi": [
    {
      "constant": true,
      "inputs": [
        {
          "name": "",
          "type": "uint256"
        }
      ],
      "name": "mutations",
      "outputs": [
        {
          "name": "id",
          "type": "uint256"
        },
        {
          "name": "signDeedId",
          "type": "uint256"
        },
        {
          "name": "propertyId",
          "type": "uint256"
        },
        {
          "name": "mutatedOn",
          "type": "uint256"
        },
        {
          "name": "latest",
          "type": "uint256"
        },
        {
          "name": "mutatedBy",
          "type": "address"
        },
        {
          "name": "newOwnerPkey",
          "type": "address"
        },
        {
          "name": "newOwnerNic",
          "type": "bytes32"
        },
        {
          "name": "next",
          "type": "uint256"
        },
        {
          "name": "prev",
          "type": "uint256"
        }
      ],
      "payable": false,
      "stateMutability": "view",
      "type": "function"
    },
    {
      "inputs": [],
      "payable": false,
      "stateMutability": "nonpayable",
      "type": "constructor"
    },
    {
      "anonymous": false,
      "inputs": [
        {
          "indexed": false,
          "name": "newID",
          "type": "uint256"
        }
      ],
      "name": "newIdEvent",
      "type": "event"
    },
    {
      "anonymous": false,
      "inputs": [
        {
          "indexed": false,
          "name": "updatedId",
          "type": "uint256"
        }
      ],
      "name": "updateMutationUpdateIdEvent",
      "type": "event"
    },
    {
      "constant": false,
      "inputs": [
        {
          "name": "_signDeedId",
          "type": "uint256"
        },
        {
          "name": "_propertyId",
          "type": "uint256"
        },
        {
          "name": "_mutatedOn",
          "type": "uint256"
        },
        {
          "name": "_mutatedBy",
          "type": "address"
        },
        {
          "name": "_newOwnerPkey",
          "type": "address"
        },
        {
          "name": "_newOwnerNic",
          "type": "bytes32"
        }
      ],
      "name": "insert",
      "outputs": [
        {
          "name": "newID",
          "type": "uint256"
        }
      ],
      "payable": false,
      "stateMutability": "nonpayable",
      "type": "function"
    },
    {
      "constant": false,
      "inputs": [
        {
          "name": "_id",
          "type": "uint256"
        }
      ],
      "name": "markMutationOld",
      "outputs": [
        {
          "name": "updatedId",
          "type": "uint256"
        }
      ],
      "payable": false,
      "stateMutability": "nonpayable",
      "type": "function"
    },
    {
      "constant": true,
      "inputs": [],
      "name": "getMutationCount",
      "outputs": [
        {
          "name": "",
          "type": "uint256"
        }
      ],
      "payable": false,
      "stateMutability": "view",
      "type": "function"
    },
    {
      "constant": true,
      "inputs": [
        {
          "name": "index",
          "type": "uint256"
        }
      ],
      "name": "getMutationFirst",
      "outputs": [
        {
          "name": "",
          "type": "uint256"
        },
        {
          "name": "",
          "type": "uint256"
        },
        {
          "name": "",
          "type": "uint256"
        },
        {
          "name": "",
          "type": "uint256"
        },
        {
          "name": "",
          "type": "uint256"
        },
        {
          "name": "",
          "type": "uint256"
        },
        {
          "name": "",
          "type": "uint256"
        }
      ],
      "payable": false,
      "stateMutability": "view",
      "type": "function"
    },
    {
      "constant": true,
      "inputs": [
        {
          "name": "index",
          "type": "uint256"
        }
      ],
      "name": "getMutationSecond",
      "outputs": [
        {
          "name": "",
          "type": "uint256"
        },
        {
          "name": "",
          "type": "address"
        },
        {
          "name": "",
          "type": "address"
        },
        {
          "name": "",
          "type": "bytes32"
        },
        {
          "name": "",
          "type": "uint256"
        },
        {
          "name": "",
          "type": "uint256"
        }
      ],
      "payable": false,
      "stateMutability": "view",
      "type": "function"
    }
  ],
  "bytecode": "0x608060405234801561001057600080fd5b506000610140604051908101604052806000815260200160008152602001600081526020016000815260200160008152602001600073ffffffffffffffffffffffffffffffffffffffff168152602001600073ffffffffffffffffffffffffffffffffffffffff168152602001600060010281526020016000815260200160008152509080600181540180825580915050906001820390600052602060002090600a020160009091929091909150600082015181600001556020820151816001015560408201518160020155606082015181600301556080820151816004015560a08201518160050160006101000a81548173ffffffffffffffffffffffffffffffffffffffff021916908373ffffffffffffffffffffffffffffffffffffffff16021790555060c08201518160060160006101000a81548173ffffffffffffffffffffffffffffffffffffffff021916908373ffffffffffffffffffffffffffffffffffffffff16021790555060e0820151816007015561010082015181600801556101208201518160090155505050610bd4806101b06000396000f3fe608060405260043610610077576000357c0100000000000000000000000000000000000000000000000000000000900463ffffffff168062a2ba181461007c5780630fdfb3cd146100f55780631a88c93c146101bf578063620030bf146101ea5780636c32015b146102975780637e22a2b41461037d575b600080fd5b34801561008857600080fd5b506100b56004803603602081101561009f57600080fd5b81019080803590602001909291905050506103cc565b6040518088815260200187815260200186815260200185815260200184815260200183815260200182815260200197505050505050505060405180910390f35b34801561010157600080fd5b5061012e6004803603602081101561011857600080fd5b81019080803590602001909291905050506104d6565b604051808781526020018673ffffffffffffffffffffffffffffffffffffffff1673ffffffffffffffffffffffffffffffffffffffff1681526020018573ffffffffffffffffffffffffffffffffffffffff1673ffffffffffffffffffffffffffffffffffffffff168152602001848152602001838152602001828152602001965050505050505060405180910390f35b3480156101cb57600080fd5b506101d46105fa565b6040518082815260200191505060405180910390f35b3480156101f657600080fd5b50610281600480360360c081101561020d57600080fd5b81019080803590602001909291908035906020019092919080359060200190929190803573ffffffffffffffffffffffffffffffffffffffff169060200190929190803573ffffffffffffffffffffffffffffffffffffffff16906020019092919080359060200190929190505050610606565b6040518082815260200191505060405180910390f35b3480156102a357600080fd5b506102d0600480360360208110156102ba57600080fd5b8101908080359060200190929190505050610800565b604051808b81526020018a81526020018981526020018881526020018781526020018673ffffffffffffffffffffffffffffffffffffffff1673ffffffffffffffffffffffffffffffffffffffff1681526020018573ffffffffffffffffffffffffffffffffffffffff1673ffffffffffffffffffffffffffffffffffffffff1681526020018481526020018381526020018281526020019a505050505050505050505060405180910390f35b34801561038957600080fd5b506103b6600480360360208110156103a057600080fd5b81019080803590602001909291905050506108a3565b6040518082815260200191505060405180910390f35b600080600080600080600080888154811015156103e557fe5b90600052602060002090600a02016000015460008981548110151561040657fe5b90600052602060002090600a02016001015460008a81548110151561042757fe5b90600052602060002090600a02016002015460008b81548110151561044857fe5b90600052602060002090600a02016003015460008c81548110151561046957fe5b90600052602060002090600a02016004015460008d81548110151561048a57fe5b90600052602060002090600a02016009015460008e8154811015156104ab57fe5b90600052602060002090600a0201600801549650965096509650965096509650919395979092949650565b6000806000806000806000878154811015156104ee57fe5b90600052602060002090600a02016000015460008881548110151561050f57fe5b90600052602060002090600a020160050160009054906101000a900473ffffffffffffffffffffffffffffffffffffffff1660008981548110151561055057fe5b90600052602060002090600a020160060160009054906101000a900473ffffffffffffffffffffffffffffffffffffffff1660008a81548110151561059157fe5b90600052602060002090600a02016007015460008b8154811015156105b257fe5b90600052602060002090600a02016009015460008c8154811015156105d357fe5b90600052602060002090600a02016008015495509550955095509550955091939550919395565b60008080549050905090565b600080805490509050600061014060405190810160405280838152602001898152602001888152602001878152602001600181526020018673ffffffffffffffffffffffffffffffffffffffff1681526020018573ffffffffffffffffffffffffffffffffffffffff16815260200184815260200160008152602001600184038152509080600181540180825580915050906001820390600052602060002090600a020160009091929091909150600082015181600001556020820151816001015560408201518160020155606082015181600301556080820151816004015560a08201518160050160006101000a81548173ffffffffffffffffffffffffffffffffffffffff021916908373ffffffffffffffffffffffffffffffffffffffff16021790555060c08201518160060160006101000a81548173ffffffffffffffffffffffffffffffffffffffff021916908373ffffffffffffffffffffffffffffffffffffffff16021790555060e0820151816007015561010082015181600801556101208201518160090155505050806000600183038154811015156107aa57fe5b90600052602060002090600a0201600801819055507fc56bc3c3f07ef03390a445e904bef98f8726182669abf36fd54f8fe19b831f67816040518082815260200191505060405180910390a19695505050505050565b60008181548110151561080f57fe5b90600052602060002090600a02016000915090508060000154908060010154908060020154908060030154908060040154908060050160009054906101000a900473ffffffffffffffffffffffffffffffffffffffff16908060060160009054906101000a900473ffffffffffffffffffffffffffffffffffffffff1690806007015490806008015490806009015490508a565b60006108ad610b25565b6000838154811015156108bc57fe5b90600052602060002090600a0201610140604051908101604052908160008201548152602001600182015481526020016002820154815260200160038201548152602001600482015481526020016005820160009054906101000a900473ffffffffffffffffffffffffffffffffffffffff1673ffffffffffffffffffffffffffffffffffffffff1673ffffffffffffffffffffffffffffffffffffffff1681526020016006820160009054906101000a900473ffffffffffffffffffffffffffffffffffffffff1673ffffffffffffffffffffffffffffffffffffffff1673ffffffffffffffffffffffffffffffffffffffff168152602001600782015481526020016008820154815260200160098201548152505090506000816080018181525050806000848154811015156109f057fe5b90600052602060002090600a0201600082015181600001556020820151816001015560408201518160020155606082015181600301556080820151816004015560a08201518160050160006101000a81548173ffffffffffffffffffffffffffffffffffffffff021916908373ffffffffffffffffffffffffffffffffffffffff16021790555060c08201518160060160006101000a81548173ffffffffffffffffffffffffffffffffffffffff021916908373ffffffffffffffffffffffffffffffffffffffff16021790555060e0820151816007015561010082015181600801556101208201518160090155905050806000015191507fe1521ed005022e2ea050a2209d28532166cf257bce2e77c3aeba43fac7dfc94d826040518082815260200191505060405180910390a150919050565b610140604051908101604052806000815260200160008152602001600081526020016000815260200160008152602001600073ffffffffffffffffffffffffffffffffffffffff168152602001600073ffffffffffffffffffffffffffffffffffffffff168152602001600080191681526020016000815260200160008152509056fea165627a7a723058202a1102f1324a74f06cb7368e234ec3e2d6145a50d4c63ca5773ec762bb91706e0029",
  "source": "pragma solidity 0.5.0;\r\n \r\n  contract MutationContract {\r\n      \r\n     struct Mutation {\r\n        uint id;\r\n        uint signDeedId;\r\n        uint propertyId;\r\n        uint mutatedOn;\r\n        uint latest;\r\n        address mutatedBy;\r\n        address newOwnerPkey;\r\n        bytes32 newOwnerNic;\r\n        uint next;\r\n        uint prev;\r\n    }\r\n        \r\n        Mutation[] public mutations;\r\n        Mutation currentMutationNode;\r\n        event newIdEvent(uint newID);\r\n        event updateMutationUpdateIdEvent(uint updatedId);\r\n        constructor() public {\r\n            // sentinel\r\n            mutations.push(Mutation(0,0,0,0,0,address(0),address(0),0x00,0,0));\r\n        }\r\n\r\n\r\n    function insert(                                                                \r\n        uint _signDeedId,\r\n        uint _propertyId,\r\n        uint _mutatedOn,\r\n        address _mutatedBy,\r\n        address _newOwnerPkey,\r\n        bytes32 _newOwnerNic) public returns (uint newID) {\r\n\r\n        newID = mutations.length;\r\n\r\n        mutations.push(Mutation({\r\n                    id:newID,                                                               \r\n                    signDeedId:_signDeedId,\r\n                    propertyId: _propertyId,\r\n                    mutatedOn:_mutatedOn,\r\n                    latest:1,\r\n                    mutatedBy:_mutatedBy,\r\n                    newOwnerPkey:_newOwnerPkey,\r\n                    newOwnerNic:_newOwnerNic,\r\n                    prev: newID-1,\r\n                    next: 0\r\n        }));\r\n      mutations[newID-1].next=newID;\r\n        emit newIdEvent(newID);\r\n    }\r\n\r\n \r\n    function markMutationOld(uint _id)  public returns (uint updatedId) {\r\n      Mutation memory mutation = mutations[_id];\r\n      mutation.latest = 0;\r\n      mutations[_id] = mutation;\r\n      updatedId = mutation.id;\r\n      emit updateMutationUpdateIdEvent(updatedId);\r\n    }\r\n\r\n    function isValidNode(uint id) internal view returns (bool) {\r\n        // 0 is a sentinel and therefore invalid.\r\n        // A valid node is the head or has a previous node.\r\n        return id != 0 && (id == mutations[0].next || mutations[id].prev != 0);\r\n    }\r\n    \r\n    function getMutationCount() public view returns(uint) {\r\n      return mutations.length;\r\n    }\r\n\r\n    function getMutationFirst(uint index) public view returns(uint,\r\n        uint,uint,uint,uint,uint, uint) {\r\n        return (mutations[index].id, \r\n        mutations[index].signDeedId,\r\n        mutations[index].propertyId,\r\n        mutations[index].mutatedOn,\r\n        mutations[index].latest,\r\n        mutations[index].prev, \r\n        mutations[index].next);\r\n    }\r\n   function getMutationSecond(uint index) public view returns(uint,\r\n        address,address,bytes32,uint, uint) {\r\n        return (mutations[index].id, \r\n        mutations[index].mutatedBy,\r\n        mutations[index].newOwnerPkey,\r\n        mutations[index].newOwnerNic,\r\n        mutations[index].prev, \r\n        mutations[index].next);\r\n    }\r\n\r\n      \r\n}\r\n  \r\n\r\n\r\n",
  "sourcePath": "C:/AsadFiles/final-year-project/real-estate-ledger-frontend/contracts/MutationContract.sol",
  "compiler": {
    "name": "solc",
    "version": "0.5.0+commit.1d4f565a.Emscripten.clang"
  },
  "schemaVersion": "3.0.9",
  "updatedAt": "2019-06-05T17:03:20.546Z",
  "devdoc": {
    "methods": {}
  },
  "userdoc": {
    "methods": {}
  }
}