{
  "contractName": "PropertyContract",
  "abi": [
    {
      "constant": true,
      "inputs": [
        {
          "name": "",
          "type": "uint256"
        }
      ],
      "name": "properties",
      "outputs": [
        {
          "name": "id",
          "type": "uint256"
        },
        {
          "name": "propertyOffChainId",
          "type": "uint256"
        },
        {
          "name": "areaSqYards",
          "type": "uint256"
        },
        {
          "name": "propertyType",
          "type": "bytes32"
        },
        {
          "name": "kind",
          "type": "bytes32"
        },
        {
          "name": "managingOrg",
          "type": "bytes32"
        },
        {
          "name": "street",
          "type": "bytes32"
        },
        {
          "name": "city",
          "type": "bytes32"
        },
        {
          "name": "province",
          "type": "bytes32"
        },
        {
          "name": "country",
          "type": "bytes32"
        },
        {
          "name": "next",
          "type": "uint256"
        },
        {
          "name": "prev",
          "type": "uint256"
        }
      ],
      "payable": false,
      "stateMutability": "view",
      "type": "function"
    },
    {
      "inputs": [],
      "payable": false,
      "stateMutability": "nonpayable",
      "type": "constructor"
    },
    {
      "anonymous": false,
      "inputs": [
        {
          "indexed": false,
          "name": "newID",
          "type": "uint256"
        }
      ],
      "name": "newIdEvent",
      "type": "event"
    },
    {
      "constant": false,
      "inputs": [
        {
          "name": "_propertyOffChainId",
          "type": "uint256"
        },
        {
          "name": "_areaSqYards",
          "type": "uint256"
        },
        {
          "name": "_propertyType",
          "type": "bytes32"
        },
        {
          "name": "_kind",
          "type": "bytes32"
        },
        {
          "name": "_managingOrg",
          "type": "bytes32"
        },
        {
          "name": "_street",
          "type": "bytes32"
        },
        {
          "name": "_city",
          "type": "bytes32"
        },
        {
          "name": "_province",
          "type": "bytes32"
        },
        {
          "name": "_country",
          "type": "bytes32"
        }
      ],
      "name": "insert",
      "outputs": [
        {
          "name": "newID",
          "type": "uint256"
        }
      ],
      "payable": false,
      "stateMutability": "nonpayable",
      "type": "function"
    },
    {
      "constant": true,
      "inputs": [],
      "name": "getPropertyCount",
      "outputs": [
        {
          "name": "",
          "type": "uint256"
        }
      ],
      "payable": false,
      "stateMutability": "view",
      "type": "function"
    },
    {
      "constant": true,
      "inputs": [
        {
          "name": "index",
          "type": "uint256"
        }
      ],
      "name": "getPropertyFirst",
      "outputs": [
        {
          "name": "",
          "type": "uint256"
        },
        {
          "name": "",
          "type": "uint256"
        },
        {
          "name": "",
          "type": "uint256"
        },
        {
          "name": "",
          "type": "bytes32"
        },
        {
          "name": "",
          "type": "uint256"
        },
        {
          "name": "",
          "type": "uint256"
        }
      ],
      "payable": false,
      "stateMutability": "view",
      "type": "function"
    },
    {
      "constant": true,
      "inputs": [
        {
          "name": "index",
          "type": "uint256"
        }
      ],
      "name": "getPropertySecond",
      "outputs": [
        {
          "name": "",
          "type": "uint256"
        },
        {
          "name": "",
          "type": "bytes32"
        },
        {
          "name": "",
          "type": "bytes32"
        },
        {
          "name": "",
          "type": "bytes32"
        },
        {
          "name": "",
          "type": "uint256"
        },
        {
          "name": "",
          "type": "uint256"
        }
      ],
      "payable": false,
      "stateMutability": "view",
      "type": "function"
    },
    {
      "constant": true,
      "inputs": [
        {
          "name": "index",
          "type": "uint256"
        }
      ],
      "name": "getPropertyThird",
      "outputs": [
        {
          "name": "",
          "type": "uint256"
        },
        {
          "name": "",
          "type": "bytes32"
        },
        {
          "name": "",
          "type": "bytes32"
        },
        {
          "name": "",
          "type": "bytes32"
        },
        {
          "name": "",
          "type": "uint256"
        },
        {
          "name": "",
          "type": "uint256"
        }
      ],
      "payable": false,
      "stateMutability": "view",
      "type": "function"
    }
  ],
  "bytecode": "0x608060405234801561001057600080fd5b50600061018060405190810160405280600081526020016000815260200160008152602001600060010281526020016000600102815260200160006001028152602001600060010281526020016000600102815260200160006001028152602001600060010281526020016000815260200160008152509080600181540180825580915050906001820390600052602060002090600c020160009091929091909150600082015181600001556020820151816001015560408201518160020155606082015181600301556080820151816004015560a0820151816005015560c0820151816006015560e082015181600701556101008201518160080155610120820151816009015561014082015181600a015561016082015181600b0155505050610805806101406000396000f3fe608060405260043610610078576000357c0100000000000000000000000000000000000000000000000000000000900463ffffffff16806304dff3601461007d5780631ff1d650146100ef578063248e53cf1461018f5780637326b90114610201578063f073d4381461022c578063f7b108081461029e575b600080fd5b34801561008957600080fd5b506100b6600480360360208110156100a057600080fd5b810190808035906020019092919050505061033a565b60405180878152602001868152602001858152602001848152602001838152602001828152602001965050505050505060405180910390f35b3480156100fb57600080fd5b50610179600480360361012081101561011357600080fd5b8101908080359060200190929190803590602001909291908035906020019092919080359060200190929190803590602001909291908035906020019092919080359060200190929190803590602001909291908035906020019092919050505061041e565b6040518082815260200191505060405180910390f35b34801561019b57600080fd5b506101c8600480360360208110156101b257600080fd5b8101908080359060200190929190505050610596565b60405180878152602001868152602001858152602001848152602001838152602001828152602001965050505050505060405180910390f35b34801561020d57600080fd5b5061021661067a565b6040518082815260200191505060405180910390f35b34801561023857600080fd5b506102656004803603602081101561024f57600080fd5b8101908080359060200190929190505050610686565b60405180878152602001868152602001858152602001848152602001838152602001828152602001965050505050505060405180910390f35b3480156102aa57600080fd5b506102d7600480360360208110156102c157600080fd5b810190808035906020019092919050505061076a565b604051808d81526020018c81526020018b81526020018a81526020018981526020018881526020018781526020018681526020018581526020018481526020018381526020018281526020019c5050505050505050505050505060405180910390f35b60008060008060008060008781548110151561035257fe5b90600052602060002090600c02016000015460008881548110151561037357fe5b90600052602060002090600c02016007015460008981548110151561039457fe5b90600052602060002090600c02016008015460008a8154811015156103b557fe5b90600052602060002090600c02016009015460008b8154811015156103d657fe5b90600052602060002090600c0201600b015460008c8154811015156103f757fe5b90600052602060002090600c0201600a015495509550955095509550955091939550919395565b6000808054905090506000610180604051908101604052808381526020018c81526020018b81526020018a815260200189815260200188815260200187815260200186815260200185815260200184815260200160008152602001600184038152509080600181540180825580915050906001820390600052602060002090600c020160009091929091909150600082015181600001556020820151816001015560408201518160020155606082015181600301556080820151816004015560a0820151816005015560c0820151816006015560e082015181600701556101008201518160080155610120820151816009015561014082015181600a015561016082015181600b01555050508060006001830381548110151561053d57fe5b90600052602060002090600c0201600a01819055507fc56bc3c3f07ef03390a445e904bef98f8726182669abf36fd54f8fe19b831f67816040518082815260200191505060405180910390a19998505050505050505050565b6000806000806000806000878154811015156105ae57fe5b90600052602060002090600c0201600001546000888154811015156105cf57fe5b90600052602060002090600c0201600101546000898154811015156105f057fe5b90600052602060002090600c02016002015460008a81548110151561061157fe5b90600052602060002090600c02016003015460008b81548110151561063257fe5b90600052602060002090600c0201600b015460008c81548110151561065357fe5b90600052602060002090600c0201600a015495509550955095509550955091939550919395565b60008080549050905090565b60008060008060008060008781548110151561069e57fe5b90600052602060002090600c0201600001546000888154811015156106bf57fe5b90600052602060002090600c0201600401546000898154811015156106e057fe5b90600052602060002090600c02016005015460008a81548110151561070157fe5b90600052602060002090600c02016006015460008b81548110151561072257fe5b90600052602060002090600c0201600b015460008c81548110151561074357fe5b90600052602060002090600c0201600a015495509550955095509550955091939550919395565b60008181548110151561077957fe5b90600052602060002090600c020160009150905080600001549080600101549080600201549080600301549080600401549080600501549080600601549080600701549080600801549080600901549080600a01549080600b015490508c56fea165627a7a72305820ee69aff078d5d392c37759e44233681b5385c30502250bd9d8ed9e3bda3fe2aa0029",
  "source": "pragma solidity 0.5.0;\r\n \r\n  contract PropertyContract {\r\n      \r\n     struct Property {\r\n        uint id;\r\n        uint propertyOffChainId;\r\n        uint areaSqYards;\r\n        bytes32  propertyType;\r\n        bytes32  kind;\r\n        bytes32  managingOrg;\r\n        bytes32  street;\r\n        bytes32  city;\r\n        bytes32 province;\r\n        bytes32  country;\r\n        uint next;\r\n        uint prev;\r\n    }\r\n        \r\n        Property[] public properties;\r\n        Property currentPropertyNode;\r\n        event newIdEvent(uint newID);\r\n        constructor() public {\r\n            // sentinel\r\n            properties.push(Property(0, 0, 0, 0x00,0x00,0x00,0x00,0x00,0x00,0x00,0,0));\r\n        }\r\n\r\n\r\n    function insert(uint _propertyOffChainId,uint _areaSqYards,\r\n        bytes32 _propertyType,bytes32 _kind,bytes32 _managingOrg,bytes32 _street,\r\n        bytes32 _city,bytes32 _province,bytes32 _country) public returns (uint newID) {\r\n\r\n        newID = properties.length;\r\n\r\n        properties.push(Property({\r\n                id:newID,\r\n                propertyOffChainId:_propertyOffChainId,\r\n                areaSqYards:_areaSqYards,\r\n                propertyType:_propertyType,\r\n                kind:_kind,\r\n                managingOrg:_managingOrg,\r\n                street:_street,\r\n                city:_city,\r\n                province:_province,\r\n                country:_country,\r\n                prev: newID-1,\r\n                next: 0\r\n        }));\r\n      properties[newID-1].next=newID;\r\n        emit newIdEvent(newID);\r\n    }\r\n\r\n    function isValidNode(uint id) internal view returns (bool) {\r\n        // 0 is a sentinel and therefore invalid.\r\n        // A valid node is the head or has a previous node.\r\n        return id != 0 && (id == properties[0].next || properties[id].prev != 0);\r\n    }\r\n    \r\n    function getPropertyCount() public view returns(uint) {\r\n      return properties.length;\r\n    }\r\n\r\n    function getPropertyFirst(uint index) public view returns(uint,\r\n        uint,uint,bytes32,uint, uint) {\r\n        return (properties[index].id, \r\n        properties[index].propertyOffChainId,\r\n        properties[index].areaSqYards,\r\n        properties[index].propertyType,\r\n        properties[index].prev, \r\n        properties[index].next);\r\n    }\r\n    function getPropertySecond(uint index) public view returns(uint,\r\n        bytes32,bytes32,bytes32,uint, uint) {\r\n        return (properties[index].id, \r\n        properties[index].kind,\r\n        properties[index].managingOrg,\r\n        properties[index].street,\r\n        properties[index].prev, \r\n        properties[index].next);\r\n    }\r\n    \r\n     function getPropertyThird(uint index) public view returns(uint,\r\n        bytes32,bytes32,bytes32,uint, uint) {\r\n        return (properties[index].id, \r\n        properties[index].city,\r\n        properties[index].province,\r\n        properties[index].country,\r\n        properties[index].prev, \r\n        properties[index].next);\r\n    }\r\n\r\n      \r\n}\r\n  \r\n\r\n\r\n",
  "sourcePath": "C:/AsadFiles/final-year-project/real-estate-ledger-frontend/contracts/PropertyContract.sol",
  "compiler": {
    "name": "solc",
    "version": "0.5.0+commit.1d4f565a.Emscripten.clang"
  },
  "schemaVersion": "3.0.9",
  "updatedAt": "2019-06-05T06:30:32.898Z",
  "devdoc": {
    "methods": {}
  },
  "userdoc": {
    "methods": {}
  }
}