{
  "contractName": "PropertyContract",
  "abi": [
    {
      "constant": true,
      "inputs": [
        {
          "name": "",
          "type": "uint256"
        }
      ],
      "name": "properties",
      "outputs": [
        {
          "name": "id",
          "type": "uint256"
        },
        {
          "name": "propertyOffChainId",
          "type": "uint256"
        },
        {
          "name": "propertyNo",
          "type": "bytes32"
        },
        {
          "name": "areaSqYards",
          "type": "uint256"
        },
        {
          "name": "propertyType",
          "type": "bytes32"
        },
        {
          "name": "kind",
          "type": "bytes32"
        },
        {
          "name": "managingOrg",
          "type": "bytes32"
        },
        {
          "name": "street",
          "type": "bytes32"
        },
        {
          "name": "city",
          "type": "bytes32"
        },
        {
          "name": "province",
          "type": "bytes32"
        },
        {
          "name": "country",
          "type": "bytes32"
        },
        {
          "name": "next",
          "type": "uint256"
        },
        {
          "name": "prev",
          "type": "uint256"
        }
      ],
      "payable": false,
      "stateMutability": "view",
      "type": "function"
    },
    {
      "inputs": [],
      "payable": false,
      "stateMutability": "nonpayable",
      "type": "constructor"
    },
    {
      "anonymous": false,
      "inputs": [
        {
          "indexed": false,
          "name": "newID",
          "type": "uint256"
        }
      ],
      "name": "newIdEvent",
      "type": "event"
    },
    {
      "constant": false,
      "inputs": [
        {
          "name": "_propertyOffChainId",
          "type": "uint256"
        },
        {
          "name": "_propertyNo",
          "type": "bytes32"
        },
        {
          "name": "_areaSqYards",
          "type": "uint256"
        },
        {
          "name": "_propertyType",
          "type": "bytes32"
        },
        {
          "name": "_kind",
          "type": "bytes32"
        },
        {
          "name": "_managingOrg",
          "type": "bytes32"
        },
        {
          "name": "_street",
          "type": "bytes32"
        },
        {
          "name": "_city",
          "type": "bytes32"
        },
        {
          "name": "_province",
          "type": "bytes32"
        },
        {
          "name": "_country",
          "type": "bytes32"
        }
      ],
      "name": "insert",
      "outputs": [
        {
          "name": "newID",
          "type": "uint256"
        }
      ],
      "payable": false,
      "stateMutability": "nonpayable",
      "type": "function"
    },
    {
      "constant": true,
      "inputs": [],
      "name": "getPropertyCount",
      "outputs": [
        {
          "name": "",
          "type": "uint256"
        }
      ],
      "payable": false,
      "stateMutability": "view",
      "type": "function"
    },
    {
      "constant": true,
      "inputs": [
        {
          "name": "index",
          "type": "uint256"
        }
      ],
      "name": "getPropertyFirst",
      "outputs": [
        {
          "name": "",
          "type": "uint256"
        },
        {
          "name": "",
          "type": "uint256"
        },
        {
          "name": "",
          "type": "bytes32"
        },
        {
          "name": "",
          "type": "uint256"
        },
        {
          "name": "",
          "type": "bytes32"
        },
        {
          "name": "",
          "type": "uint256"
        },
        {
          "name": "",
          "type": "uint256"
        }
      ],
      "payable": false,
      "stateMutability": "view",
      "type": "function"
    },
    {
      "constant": true,
      "inputs": [
        {
          "name": "index",
          "type": "uint256"
        }
      ],
      "name": "getPropertySecond",
      "outputs": [
        {
          "name": "",
          "type": "uint256"
        },
        {
          "name": "",
          "type": "bytes32"
        },
        {
          "name": "",
          "type": "bytes32"
        },
        {
          "name": "",
          "type": "bytes32"
        },
        {
          "name": "",
          "type": "uint256"
        },
        {
          "name": "",
          "type": "uint256"
        }
      ],
      "payable": false,
      "stateMutability": "view",
      "type": "function"
    },
    {
      "constant": true,
      "inputs": [
        {
          "name": "index",
          "type": "uint256"
        }
      ],
      "name": "getPropertyThird",
      "outputs": [
        {
          "name": "",
          "type": "uint256"
        },
        {
          "name": "",
          "type": "bytes32"
        },
        {
          "name": "",
          "type": "bytes32"
        },
        {
          "name": "",
          "type": "bytes32"
        },
        {
          "name": "",
          "type": "uint256"
        },
        {
          "name": "",
          "type": "uint256"
        }
      ],
      "payable": false,
      "stateMutability": "view",
      "type": "function"
    }
  ],
  "bytecode": "0x608060405234801561001057600080fd5b5060006101a06040519081016040528060008152602001600081526020016000600102815260200160008152602001600060010281526020016000600102815260200160006001028152602001600060010281526020016000600102815260200160006001028152602001600060010281526020016000815260200160008152509080600181540180825580915050906001820390600052602060002090600d020160009091929091909150600082015181600001556020820151816001015560408201518160020155606082015181600301556080820151816004015560a0820151816005015560c0820151816006015560e082015181600701556101008201518160080155610120820151816009015561014082015181600a015561016082015181600b015561018082015181600c015550505061085b806101556000396000f3fe608060405260043610610078576000357c0100000000000000000000000000000000000000000000000000000000900463ffffffff16806304dff3601461007d578063248e53cf146100ef5780634aa72a0d146101685780637326b90114610212578063f073d4381461023d578063f7b10808146102af575b600080fd5b34801561008957600080fd5b506100b6600480360360208110156100a057600080fd5b8101908080359060200190929190505050610352565b60405180878152602001868152602001858152602001848152602001838152602001828152602001965050505050505060405180910390f35b3480156100fb57600080fd5b506101286004803603602081101561011257600080fd5b8101908080359060200190929190505050610436565b6040518088815260200187815260200186815260200185815260200184815260200183815260200182815260200197505050505050505060405180910390f35b34801561017457600080fd5b506101fc600480360361014081101561018c57600080fd5b8101908080359060200190929190803590602001909291908035906020019092919080359060200190929190803590602001909291908035906020019092919080359060200190929190803590602001909291908035906020019092919080359060200190929190505050610540565b6040518082815260200191505060405180910390f35b34801561021e57600080fd5b506102276106ca565b6040518082815260200191505060405180910390f35b34801561024957600080fd5b506102766004803603602081101561026057600080fd5b81019080803590602001909291905050506106d6565b60405180878152602001868152602001858152602001848152602001838152602001828152602001965050505050505060405180910390f35b3480156102bb57600080fd5b506102e8600480360360208110156102d257600080fd5b81019080803590602001909291905050506107ba565b604051808e81526020018d81526020018c81526020018b81526020018a81526020018981526020018881526020018781526020018681526020018581526020018481526020018381526020018281526020019d505050505050505050505050505060405180910390f35b60008060008060008060008781548110151561036a57fe5b90600052602060002090600d02016000015460008881548110151561038b57fe5b90600052602060002090600d0201600801546000898154811015156103ac57fe5b90600052602060002090600d02016009015460008a8154811015156103cd57fe5b90600052602060002090600d0201600a015460008b8154811015156103ee57fe5b90600052602060002090600d0201600c015460008c81548110151561040f57fe5b90600052602060002090600d0201600b015495509550955095509550955091939550919395565b6000806000806000806000808881548110151561044f57fe5b90600052602060002090600d02016000015460008981548110151561047057fe5b90600052602060002090600d02016001015460008a81548110151561049157fe5b90600052602060002090600d02016002015460008b8154811015156104b257fe5b90600052602060002090600d02016003015460008c8154811015156104d357fe5b90600052602060002090600d02016004015460008d8154811015156104f457fe5b90600052602060002090600d0201600c015460008e81548110151561051557fe5b90600052602060002090600d0201600b01549650965096509650965096509650919395979092949650565b60008080549050905060006101a0604051908101604052808381526020018d81526020018c81526020018b81526020018a815260200189815260200188815260200187815260200186815260200185815260200184815260200160008152602001600184038152509080600181540180825580915050906001820390600052602060002090600d020160009091929091909150600082015181600001556020820151816001015560408201518160020155606082015181600301556080820151816004015560a0820151816005015560c0820151816006015560e082015181600701556101008201518160080155610120820151816009015561014082015181600a015561016082015181600b015561018082015181600c01555050508060006001830381548110151561067057fe5b90600052602060002090600d0201600b01819055507fc56bc3c3f07ef03390a445e904bef98f8726182669abf36fd54f8fe19b831f67816040518082815260200191505060405180910390a19a9950505050505050505050565b60008080549050905090565b6000806000806000806000878154811015156106ee57fe5b90600052602060002090600d02016000015460008881548110151561070f57fe5b90600052602060002090600d02016005015460008981548110151561073057fe5b90600052602060002090600d02016006015460008a81548110151561075157fe5b90600052602060002090600d02016007015460008b81548110151561077257fe5b90600052602060002090600d0201600c015460008c81548110151561079357fe5b90600052602060002090600d0201600b015495509550955095509550955091939550919395565b6000818154811015156107c957fe5b90600052602060002090600d020160009150905080600001549080600101549080600201549080600301549080600401549080600501549080600601549080600701549080600801549080600901549080600a01549080600b01549080600c015490508d56fea165627a7a72305820805900b48ef7f500680702ce1edfee62f44d90a5753b11c0c2ac2800dd423f1f0029",
  "source": "pragma solidity 0.5.0;\r\n \r\n  contract PropertyContract {\r\n      \r\n     struct Property {\r\n        uint id;\r\n        uint propertyOffChainId;\r\n        bytes32  propertyNo;\r\n        uint areaSqYards;\r\n        bytes32  propertyType;\r\n        bytes32  kind;\r\n        bytes32  managingOrg;\r\n        bytes32  street;\r\n        bytes32  city;\r\n        bytes32 province;\r\n        bytes32  country;\r\n        uint next;\r\n        uint prev;\r\n    }\r\n        \r\n        Property[] public properties;\r\n        Property currentPropertyNode;\r\n        event newIdEvent(uint newID);\r\n        constructor() public {\r\n            // sentinel\r\n            properties.push(Property(0, 0, 0x00, 0, 0x00,0x00,0x00,0x00,0x00,0x00,0x00,0,0));\r\n        }\r\n\r\n\r\n    function insert(uint _propertyOffChainId,bytes32 _propertyNo,uint _areaSqYards,\r\n        bytes32 _propertyType,bytes32 _kind,bytes32 _managingOrg,bytes32 _street,\r\n        bytes32 _city,bytes32 _province,bytes32 _country) public returns (uint newID) {\r\n\r\n        newID = properties.length;\r\n\r\n        properties.push(Property({\r\n                id:newID,\r\n                propertyOffChainId:_propertyOffChainId,\r\n                propertyNo: _propertyNo,\r\n                areaSqYards:_areaSqYards,\r\n                propertyType:_propertyType,\r\n                kind:_kind,\r\n                managingOrg:_managingOrg,\r\n                street:_street,\r\n                city:_city,\r\n                province:_province,\r\n                country:_country,\r\n                prev: newID-1,\r\n                next: 0\r\n        }));\r\n      properties[newID-1].next=newID;\r\n        emit newIdEvent(newID);\r\n    }\r\n\r\n    function isValidNode(uint id) internal view returns (bool) {\r\n        // 0 is a sentinel and therefore invalid.\r\n        // A valid node is the head or has a previous node.\r\n        return id != 0 && (id == properties[0].next || properties[id].prev != 0);\r\n    }\r\n    \r\n    function getPropertyCount() public view returns(uint) {\r\n      return properties.length;\r\n    }\r\n\r\n    function getPropertyFirst(uint index) public view returns(uint,\r\n        uint,bytes32,uint,bytes32,uint, uint) {\r\n        return (properties[index].id, \r\n        properties[index].propertyOffChainId,\r\n        properties[index].propertyNo,\r\n        properties[index].areaSqYards,\r\n        properties[index].propertyType,\r\n        properties[index].prev, \r\n        properties[index].next);\r\n    }\r\n    function getPropertySecond(uint index) public view returns(uint,\r\n        bytes32,bytes32,bytes32,uint, uint) {\r\n        return (properties[index].id, \r\n        properties[index].kind,\r\n        properties[index].managingOrg,\r\n        properties[index].street,\r\n        properties[index].prev, \r\n        properties[index].next);\r\n    }\r\n    \r\n     function getPropertyThird(uint index) public view returns(uint,\r\n        bytes32,bytes32,bytes32,uint, uint) {\r\n        return (properties[index].id, \r\n        properties[index].city,\r\n        properties[index].province,\r\n        properties[index].country,\r\n        properties[index].prev, \r\n        properties[index].next);\r\n    }\r\n\r\n      \r\n}\r\n  \r\n\r\n\r\n",
  "sourcePath": "C:/AsadFiles/RealEstateLedgerFrontEnd/contracts/PropertyContract.sol",
  "compiler": {
    "name": "solc",
    "version": "0.5.0+commit.1d4f565a.Emscripten.clang"
  },
  "schemaVersion": "3.0.9",
  "updatedAt": "2019-06-09T18:49:00.664Z",
  "devdoc": {
    "methods": {}
  },
  "userdoc": {
    "methods": {}
  }
}