{
  "contractName": "SignDeedContract",
  "abi": [
    {
      "constant": true,
      "inputs": [
        {
          "name": "",
          "type": "uint256"
        }
      ],
      "name": "signDeeds",
      "outputs": [
        {
          "name": "id",
          "type": "uint256"
        },
        {
          "name": "propertyId",
          "type": "uint256"
        },
        {
          "name": "deedId",
          "type": "uint256"
        },
        {
          "name": "soldAmount",
          "type": "uint256"
        },
        {
          "name": "buyerSignature",
          "type": "bytes"
        },
        {
          "name": "sellerSignature",
          "type": "bytes"
        },
        {
          "name": "verified",
          "type": "uint256"
        },
        {
          "name": "next",
          "type": "uint256"
        },
        {
          "name": "prev",
          "type": "uint256"
        }
      ],
      "payable": false,
      "stateMutability": "view",
      "type": "function"
    },
    {
      "inputs": [],
      "payable": false,
      "stateMutability": "nonpayable",
      "type": "constructor"
    },
    {
      "anonymous": false,
      "inputs": [
        {
          "indexed": false,
          "name": "newID",
          "type": "uint256"
        }
      ],
      "name": "newIdEvent",
      "type": "event"
    },
    {
      "anonymous": false,
      "inputs": [
        {
          "indexed": false,
          "name": "updatedId",
          "type": "uint256"
        }
      ],
      "name": "updateByBuyerEvent",
      "type": "event"
    },
    {
      "anonymous": false,
      "inputs": [
        {
          "indexed": false,
          "name": "updatedId",
          "type": "uint256"
        }
      ],
      "name": "updateBySellerEvent",
      "type": "event"
    },
    {
      "constant": false,
      "inputs": [
        {
          "name": "_propertyId",
          "type": "uint256"
        },
        {
          "name": "_deedId",
          "type": "uint256"
        },
        {
          "name": "_soldAmount",
          "type": "uint256"
        }
      ],
      "name": "insert",
      "outputs": [
        {
          "name": "newID",
          "type": "uint256"
        }
      ],
      "payable": false,
      "stateMutability": "nonpayable",
      "type": "function"
    },
    {
      "constant": false,
      "inputs": [
        {
          "name": "_signDeedId",
          "type": "uint256"
        },
        {
          "name": "_sellerSignature",
          "type": "bytes"
        }
      ],
      "name": "signForSeller",
      "outputs": [
        {
          "name": "updatedId",
          "type": "uint256"
        }
      ],
      "payable": false,
      "stateMutability": "nonpayable",
      "type": "function"
    },
    {
      "constant": false,
      "inputs": [
        {
          "name": "_signDeedId",
          "type": "uint256"
        },
        {
          "name": "_buyerSignature",
          "type": "bytes"
        }
      ],
      "name": "signForBuyer",
      "outputs": [
        {
          "name": "updatedId",
          "type": "uint256"
        }
      ],
      "payable": false,
      "stateMutability": "nonpayable",
      "type": "function"
    },
    {
      "constant": true,
      "inputs": [],
      "name": "getSignDeedCount",
      "outputs": [
        {
          "name": "",
          "type": "uint256"
        }
      ],
      "payable": false,
      "stateMutability": "view",
      "type": "function"
    },
    {
      "constant": true,
      "inputs": [
        {
          "name": "index",
          "type": "uint256"
        }
      ],
      "name": "getSignDeedFirst",
      "outputs": [
        {
          "name": "",
          "type": "uint256"
        },
        {
          "name": "",
          "type": "uint256"
        },
        {
          "name": "",
          "type": "uint256"
        },
        {
          "name": "",
          "type": "uint256"
        },
        {
          "name": "",
          "type": "bytes"
        },
        {
          "name": "",
          "type": "uint256"
        },
        {
          "name": "",
          "type": "uint256"
        }
      ],
      "payable": false,
      "stateMutability": "view",
      "type": "function"
    },
    {
      "constant": true,
      "inputs": [
        {
          "name": "index",
          "type": "uint256"
        }
      ],
      "name": "getSignDeedSecond",
      "outputs": [
        {
          "name": "",
          "type": "uint256"
        },
        {
          "name": "",
          "type": "uint256"
        },
        {
          "name": "",
          "type": "uint256"
        },
        {
          "name": "",
          "type": "bytes"
        },
        {
          "name": "",
          "type": "uint256"
        },
        {
          "name": "",
          "type": "uint256"
        },
        {
          "name": "",
          "type": "uint256"
        }
      ],
      "payable": false,
      "stateMutability": "view",
      "type": "function"
    }
  ],
  "bytecode": "0x60806040523480156200001157600080fd5b506000610120604051908101604052806000815260200160008152602001600081526020016000815260200160006040519080825280601f01601f191660200182016040528015620000725781602001600182028038833980820191505090505b50815260200160006040519080825280601f01601f191660200182016040528015620000ad5781602001600182028038833980820191505090505b5081526020016000815260200160008152602001600081525090806001815401808255809150509060018203906000526020600020906009020160009091929091909150600082015181600001556020820151816001015560408201518160020155606082015181600301556080820151816004019080519060200190620001379291906200017f565b5060a0820151816005019080519060200190620001569291906200017f565b5060c0820151816006015560e0820151816007015561010082015181600801555050506200022e565b828054600181600116156101000203166002900490600052602060002090601f016020900481019282601f10620001c257805160ff1916838001178555620001f3565b82800160010185558215620001f3579182015b82811115620001f2578251825591602001919060010190620001d5565b5b50905062000202919062000206565b5090565b6200022b91905b80821115620002275760008160009055506001016200020d565b5090565b90565b611896806200023e6000396000f3fe608060405260043610610083576000357c0100000000000000000000000000000000000000000000000000000000900463ffffffff16806303c3a78d146100885780634197bf0d1461016e5780634a803387146102545780639ee091bf146102b7578063b5ec055714610395578063cdc2a98e146104e6578063fdc3773114610511575b600080fd5b34801561009457600080fd5b50610158600480360360408110156100ab57600080fd5b8101908080359060200190929190803590602001906401000000008111156100d257600080fd5b8201836020820111156100e457600080fd5b8035906020019184600183028401116401000000008311171561010657600080fd5b91908080601f016020809104026020016040519081016040528093929190818152602001838380828437600081840152601f19601f8201169050808301925050505050505091929192905050506105ef565b6040518082815260200191505060405180910390f35b34801561017a57600080fd5b5061023e6004803603604081101561019157600080fd5b8101908080359060200190929190803590602001906401000000008111156101b857600080fd5b8201836020820111156101ca57600080fd5b803590602001918460018302840111640100000000831117156101ec57600080fd5b91908080601f016020809104026020016040519081016040528093929190818152602001838380828437600081840152601f19601f820116905080830192505050505050509192919290505050610b5a565b6040518082815260200191505060405180910390f35b34801561026057600080fd5b506102a16004803603606081101561027757600080fd5b810190808035906020019092919080359060200190929190803590602001909291905050506110c5565b6040518082815260200191505060405180910390f35b3480156102c357600080fd5b506102f0600480360360208110156102da57600080fd5b8101908080359060200190929190505050611293565b6040518088815260200187815260200186815260200180602001858152602001848152602001838152602001828103825286818151815260200191508051906020019080838360005b83811015610354578082015181840152602081019050610339565b50505050905090810190601f1680156103815780820380516001836020036101000a031916815260200191505b509850505050505050505060405180910390f35b3480156103a157600080fd5b506103ce600480360360208110156103b857600080fd5b8101908080359060200190929190505050611439565b604051808a81526020018981526020018881526020018781526020018060200180602001868152602001858152602001848152602001838103835288818151815260200191508051906020019080838360005b8381101561043c578082015181840152602081019050610421565b50505050905090810190601f1680156104695780820380516001836020036101000a031916815260200191505b50838103825287818151815260200191508051906020019080838360005b838110156104a2578082015181840152602081019050610487565b50505050905090810190601f1680156104cf5780820380516001836020036101000a031916815260200191505b509b50505050505050505050505060405180910390f35b3480156104f257600080fd5b506104fb6115c6565b6040518082815260200191505060405180910390f35b34801561051d57600080fd5b5061054a6004803603602081101561053457600080fd5b81019080803590602001909291905050506115d2565b6040518088815260200187815260200186815260200185815260200180602001848152602001838152602001828103825285818151815260200191508051906020019080838360005b838110156105ae578082015181840152602081019050610593565b50505050905090810190601f1680156105db5780820380516001836020036101000a031916815260200191505b509850505050505050505060405180910390f35b60006105f9611778565b60008481548110151561060857fe5b9060005260206000209060090201610120604051908101604052908160008201548152602001600182015481526020016002820154815260200160038201548152602001600482018054600181600116156101000203166002900480601f0160208091040260200160405190810160405280929190818152602001828054600181600116156101000203166002900480156106e45780601f106106b9576101008083540402835291602001916106e4565b820191906000526020600020905b8154815290600101906020018083116106c757829003601f168201915b50505050508152602001600582018054600181600116156101000203166002900480601f0160208091040260200160405190810160405280929190818152602001828054600181600116156101000203166002900480156107865780601f1061075b57610100808354040283529160200191610786565b820191906000526020600020905b81548152906001019060200180831161076957829003601f168201915b5050505050815260200160068201548152602001600782015481526020016008820154815250509050828160a00181905250806000858154811015156107c857fe5b906000526020600020906009020160008201518160000155602082015181600101556040820151816002015560608201518160030155608082015181600401908051906020019061081a9291906117c5565b5060a08201518160050190805190602001906108379291906117c5565b5060c0820151816006015560e08201518160070155610100820151816008015590505060006040519080825280601f01601f19166020018201604052801561088e5781602001600182028038833980820191505090505b506040518082805190602001908083835b6020831015156108c4578051825260208201915060208101905060208303925061089f565b6001836020036101000a03801982511681845116808217855250505050505090500191505060405180910390208160a001516040518082805190602001908083835b60208310151561092b5780518252602082019150602081019050602083039250610906565b6001836020036101000a038019825116818451168082178552505050505050905001915050604051809103902014158015610a62575060006040519080825280601f01601f1916602001820160405280156109955781602001600182028038833980820191505090505b506040518082805190602001908083835b6020831015156109cb57805182526020820191506020810190506020830392506109a6565b6001836020036101000a038019825116818451168082178552505050505050905001915050604051809103902081608001516040518082805190602001908083835b602083101515610a325780518252602082019150602081019050602083039250610a0d565b6001836020036101000a038019825116818451168082178552505050505050905001915050604051809103902014155b15610b155760018160c001818152505080600085815481101515610a8257fe5b9060005260206000209060090201600082015181600001556020820151816001015560408201518160020155606082015181600301556080820151816004019080519060200190610ad49291906117c5565b5060a0820151816005019080519060200190610af19291906117c5565b5060c0820151816006015560e0820151816007015561010082015181600801559050505b806000015191507fe5893e8b6d9575f93bd030a82a90b316738a212395921e10191e1be85b5553b9826040518082815260200191505060405180910390a15092915050565b6000610b64611778565b600084815481101515610b7357fe5b9060005260206000209060090201610120604051908101604052908160008201548152602001600182015481526020016002820154815260200160038201548152602001600482018054600181600116156101000203166002900480601f016020809104026020016040519081016040528092919081815260200182805460018160011615610100020316600290048015610c4f5780601f10610c2457610100808354040283529160200191610c4f565b820191906000526020600020905b815481529060010190602001808311610c3257829003601f168201915b50505050508152602001600582018054600181600116156101000203166002900480601f016020809104026020016040519081016040528092919081815260200182805460018160011615610100020316600290048015610cf15780601f10610cc657610100808354040283529160200191610cf1565b820191906000526020600020905b815481529060010190602001808311610cd457829003601f168201915b505050505081526020016006820154815260200160078201548152602001600882015481525050905082816080018190525080600085815481101515610d3357fe5b9060005260206000209060090201600082015181600001556020820151816001015560408201518160020155606082015181600301556080820151816004019080519060200190610d859291906117c5565b5060a0820151816005019080519060200190610da29291906117c5565b5060c0820151816006015560e08201518160070155610100820151816008015590505060006040519080825280601f01601f191660200182016040528015610df95781602001600182028038833980820191505090505b506040518082805190602001908083835b602083101515610e2f5780518252602082019150602081019050602083039250610e0a565b6001836020036101000a03801982511681845116808217855250505050505090500191505060405180910390208160a001516040518082805190602001908083835b602083101515610e965780518252602082019150602081019050602083039250610e71565b6001836020036101000a038019825116818451168082178552505050505050905001915050604051809103902014158015610fcd575060006040519080825280601f01601f191660200182016040528015610f005781602001600182028038833980820191505090505b506040518082805190602001908083835b602083101515610f365780518252602082019150602081019050602083039250610f11565b6001836020036101000a038019825116818451168082178552505050505050905001915050604051809103902081608001516040518082805190602001908083835b602083101515610f9d5780518252602082019150602081019050602083039250610f78565b6001836020036101000a038019825116818451168082178552505050505050905001915050604051809103902014155b156110805760018160c001818152505080600085815481101515610fed57fe5b906000526020600020906009020160008201518160000155602082015181600101556040820151816002015560608201518160030155608082015181600401908051906020019061103f9291906117c5565b5060a082015181600501908051906020019061105c9291906117c5565b5060c0820151816006015560e0820151816007015561010082015181600801559050505b806000015191507f92bc66307c938e1f598267ab825da3baad66283790eaeff9049caf97ff9d0540826040518082815260200191505060405180910390a15092915050565b60008080549050905060006101206040519081016040528083815260200186815260200185815260200184815260200160006040519080825280601f01601f1916602001820160405280156111295781602001600182028038833980820191505090505b50815260200160006040519080825280601f01601f1916602001820160405280156111635781602001600182028038833980820191505090505b508152602001600081526020016000815260200160018403815250908060018154018082558091505090600182039060005260206000209060090201600090919290919091506000820151816000015560208201518160010155604082015181600201556060820151816003015560808201518160040190805190602001906111ed9291906117c5565b5060a082015181600501908051906020019061120a9291906117c5565b5060c0820151816006015560e0820151816007015561010082015181600801555050508060006001830381548110151561124057fe5b9060005260206000209060090201600701819055507fc56bc3c3f07ef03390a445e904bef98f8726182669abf36fd54f8fe19b831f67816040518082815260200191505060405180910390a19392505050565b60008060006060600080600080888154811015156112ad57fe5b9060005260206000209060090201600001546000898154811015156112ce57fe5b90600052602060002090600902016001015460008a8154811015156112ef57fe5b90600052602060002090600902016002015460008b81548110151561131057fe5b906000526020600020906009020160040160008c81548110151561133057fe5b90600052602060002090600902016006015460008d81548110151561135157fe5b90600052602060002090600902016008015460008e81548110151561137257fe5b906000526020600020906009020160070154838054600181600116156101000203166002900480601f0160208091040260200160405190810160405280929190818152602001828054600181600116156101000203166002900480156114195780601f106113ee57610100808354040283529160200191611419565b820191906000526020600020905b8154815290600101906020018083116113fc57829003601f168201915b505050505093509650965096509650965096509650919395979092949650565b60008181548110151561144857fe5b9060005260206000209060090201600091509050806000015490806001015490806002015490806003015490806004018054600181600116156101000203166002900480601f01602080910402602001604051908101604052809291908181526020018280546001816001161561010002031660029004801561150c5780601f106114e15761010080835404028352916020019161150c565b820191906000526020600020905b8154815290600101906020018083116114ef57829003601f168201915b505050505090806005018054600181600116156101000203166002900480601f0160208091040260200160405190810160405280929190818152602001828054600181600116156101000203166002900480156115aa5780601f1061157f576101008083540402835291602001916115aa565b820191906000526020600020905b81548152906001019060200180831161158d57829003601f168201915b5050505050908060060154908060070154908060080154905089565b60008080549050905090565b60008060008060606000806000888154811015156115ec57fe5b90600052602060002090600902016000015460008981548110151561160d57fe5b90600052602060002090600902016001015460008a81548110151561162e57fe5b90600052602060002090600902016002015460008b81548110151561164f57fe5b90600052602060002090600902016003015460008c81548110151561167057fe5b906000526020600020906009020160050160008d81548110151561169057fe5b90600052602060002090600902016008015460008e8154811015156116b157fe5b906000526020600020906009020160070154828054600181600116156101000203166002900480601f0160208091040260200160405190810160405280929190818152602001828054600181600116156101000203166002900480156117585780601f1061172d57610100808354040283529160200191611758565b820191906000526020600020905b81548152906001019060200180831161173b57829003601f168201915b505050505092509650965096509650965096509650919395979092949650565b610120604051908101604052806000815260200160008152602001600081526020016000815260200160608152602001606081526020016000815260200160008152602001600081525090565b828054600181600116156101000203166002900490600052602060002090601f016020900481019282601f1061180657805160ff1916838001178555611834565b82800160010185558215611834579182015b82811115611833578251825591602001919060010190611818565b5b5090506118419190611845565b5090565b61186791905b8082111561186357600081600090555060010161184b565b5090565b9056fea165627a7a72305820b2114f92371785f18982896020041ba2395dd637a13e42fdd0f2778a33c4ea810029",
  "source": "pragma solidity 0.5.0;\r\n  \r\n  contract SignDeedContract {\r\n      \r\n     struct SignDeed {\r\n        uint id;                                                                \r\n        uint propertyId;\r\n        uint deedId;\r\n        uint soldAmount;\r\n        bytes buyerSignature;\r\n        bytes sellerSignature;\r\n        uint verified;\r\n        uint next;\r\n        uint prev;\r\n    }\r\n        \r\n        SignDeed[] public signDeeds;\r\n        SignDeed currentDeedNode;\r\n        event newIdEvent(uint newID);\r\n        event updateByBuyerEvent(uint updatedId);\r\n        event updateBySellerEvent(uint updatedId);\r\n        constructor() public {\r\n            // sentinel\r\n            signDeeds.push(SignDeed(0, 0, 0,0, new bytes(0),new bytes(0) ,0 ,0 , 0));\r\n        }\r\n\r\n\r\n    function insert(                                                                \r\n        uint _propertyId,\r\n        uint _deedId,\r\n        uint _soldAmount) public returns (uint newID) {\r\n\r\n        newID = signDeeds.length;\r\n\r\n        signDeeds.push(SignDeed({\r\n                 id:newID,                                                               \r\n                 propertyId:_propertyId,\r\n                 deedId: _deedId,\r\n                 soldAmount: _soldAmount,\r\n                 buyerSignature: new bytes(0),\r\n                 sellerSignature: new bytes(0),\r\n                 verified:0,\r\n                 prev: newID-1,\r\n                 next: 0\r\n        }));\r\n      signDeeds[newID-1].next=newID;\r\n        emit newIdEvent(newID);\r\n    }\r\n    \r\n     function signForSeller(                                                                \r\n        uint _signDeedId,\r\n        bytes memory _sellerSignature) public returns (uint updatedId) {\r\n\r\n        SignDeed memory signDeed = signDeeds[_signDeedId];\r\n        //verify buyer signature code\r\n        signDeed.sellerSignature=  _sellerSignature;\r\n        signDeeds[_signDeedId] = signDeed;\r\n        if(keccak256(signDeed.sellerSignature)  != keccak256(new bytes(0))\r\n        && keccak256(signDeed.buyerSignature)  != keccak256(new bytes(0))){\r\n            signDeed.verified=1;\r\n            signDeeds[_signDeedId] = signDeed;\r\n        }\r\n        updatedId = signDeed.id;\r\n        emit updateBySellerEvent(updatedId);\r\n    }\r\n    \r\n     function signForBuyer(                                                                \r\n        uint _signDeedId,\r\n        bytes memory _buyerSignature) public returns (uint updatedId) {\r\n\r\n        SignDeed memory signDeed = signDeeds[_signDeedId];\r\n        //verify buyer signature code\r\n        signDeed.buyerSignature=_buyerSignature;\r\n        signDeeds[_signDeedId] = signDeed;\r\n        if(keccak256(signDeed.sellerSignature)  != keccak256(new bytes(0))\r\n        && keccak256(signDeed.buyerSignature)  != keccak256(new bytes(0))){\r\n            signDeed.verified=1;\r\n            signDeeds[_signDeedId] = signDeed;\r\n        }\r\n        \r\n        updatedId= signDeed.id;\r\n        emit updateByBuyerEvent(updatedId);\r\n    }\r\n\r\n    function isValidNode(uint id) internal view returns (bool) {\r\n        // 0 is a sentinel and therefore invalid.\r\n        // A valid node is the head or has a previous node.\r\n        return id != 0 && (id == signDeeds[0].next || signDeeds[id].prev != 0);\r\n    }\r\n    \r\n    function getSignDeedCount() public view returns(uint) {\r\n      return signDeeds.length;\r\n    }\r\n\r\n    function getSignDeedFirst(uint index) public view returns(uint,\r\n        uint,uint,uint,bytes memory,uint, uint) {\r\n        return (signDeeds[index].id, \r\n        signDeeds[index].propertyId,\r\n        signDeeds[index].deedId,\r\n        signDeeds[index].soldAmount,\r\n        signDeeds[index].sellerSignature,\r\n        signDeeds[index].prev, \r\n        signDeeds[index].next);\r\n    }\r\n    \r\n     function getSignDeedSecond(uint index) public view returns(uint,\r\n        uint,uint,bytes memory,uint,uint, uint) {\r\n        return (signDeeds[index].id, \r\n        signDeeds[index].propertyId,\r\n        signDeeds[index].deedId,\r\n        signDeeds[index].buyerSignature,\r\n        signDeeds[index].verified,\r\n        signDeeds[index].prev, \r\n        signDeeds[index].next);\r\n    }\r\n \r\n      \r\n}\r\n  \r\n",
  "sourcePath": "C:/AsadFiles/final-year-project/real-estate-ledger-frontend/contracts/SignDeedContract.sol",
  "compiler": {
    "name": "solc",
    "version": "0.5.0+commit.1d4f565a.Emscripten.clang"
  },
  "schemaVersion": "3.0.9",
  "updatedAt": "2019-06-06T16:54:12.113Z",
  "devdoc": {
    "methods": {}
  },
  "userdoc": {
    "methods": {}
  }
}