{
  "contractName": "SignDeedContract",
  "abi": [
    {
      "constant": true,
      "inputs": [
        {
          "name": "",
          "type": "uint256"
        }
      ],
      "name": "signDeeds",
      "outputs": [
        {
          "name": "id",
          "type": "uint256"
        },
        {
          "name": "propertyId",
          "type": "uint256"
        },
        {
          "name": "deedId",
          "type": "uint256"
        },
        {
          "name": "soldAmount",
          "type": "uint256"
        },
        {
          "name": "buyerSignature",
          "type": "bytes32"
        },
        {
          "name": "sellerSignature",
          "type": "bytes32"
        },
        {
          "name": "verified",
          "type": "uint256"
        },
        {
          "name": "next",
          "type": "uint256"
        },
        {
          "name": "prev",
          "type": "uint256"
        }
      ],
      "payable": false,
      "stateMutability": "view",
      "type": "function"
    },
    {
      "inputs": [],
      "payable": false,
      "stateMutability": "nonpayable",
      "type": "constructor"
    },
    {
      "anonymous": false,
      "inputs": [
        {
          "indexed": false,
          "name": "newID",
          "type": "uint256"
        }
      ],
      "name": "newIdEvent",
      "type": "event"
    },
    {
      "anonymous": false,
      "inputs": [
        {
          "indexed": false,
          "name": "updatedId",
          "type": "uint256"
        }
      ],
      "name": "updateByBuyerEvent",
      "type": "event"
    },
    {
      "anonymous": false,
      "inputs": [
        {
          "indexed": false,
          "name": "updatedId",
          "type": "uint256"
        }
      ],
      "name": "updateBySellerEvent",
      "type": "event"
    },
    {
      "constant": false,
      "inputs": [
        {
          "name": "_propertyId",
          "type": "uint256"
        },
        {
          "name": "_deedId",
          "type": "uint256"
        },
        {
          "name": "_soldAmount",
          "type": "uint256"
        }
      ],
      "name": "insert",
      "outputs": [
        {
          "name": "newID",
          "type": "uint256"
        }
      ],
      "payable": false,
      "stateMutability": "nonpayable",
      "type": "function"
    },
    {
      "constant": false,
      "inputs": [
        {
          "name": "_signDeedId",
          "type": "uint256"
        },
        {
          "name": "_sellerSignature",
          "type": "bytes32"
        }
      ],
      "name": "signForSeller",
      "outputs": [
        {
          "name": "updatedId",
          "type": "uint256"
        }
      ],
      "payable": false,
      "stateMutability": "nonpayable",
      "type": "function"
    },
    {
      "constant": false,
      "inputs": [
        {
          "name": "_signDeedId",
          "type": "uint256"
        },
        {
          "name": "_buyerSignature",
          "type": "bytes32"
        }
      ],
      "name": "signForBuyer",
      "outputs": [
        {
          "name": "updatedId",
          "type": "uint256"
        }
      ],
      "payable": false,
      "stateMutability": "nonpayable",
      "type": "function"
    },
    {
      "constant": true,
      "inputs": [],
      "name": "getSignDeedCount",
      "outputs": [
        {
          "name": "",
          "type": "uint256"
        }
      ],
      "payable": false,
      "stateMutability": "view",
      "type": "function"
    },
    {
      "constant": true,
      "inputs": [
        {
          "name": "index",
          "type": "uint256"
        }
      ],
      "name": "getSignDeedFirst",
      "outputs": [
        {
          "name": "",
          "type": "uint256"
        },
        {
          "name": "",
          "type": "uint256"
        },
        {
          "name": "",
          "type": "uint256"
        },
        {
          "name": "",
          "type": "uint256"
        },
        {
          "name": "",
          "type": "bytes32"
        },
        {
          "name": "",
          "type": "uint256"
        },
        {
          "name": "",
          "type": "uint256"
        }
      ],
      "payable": false,
      "stateMutability": "view",
      "type": "function"
    },
    {
      "constant": true,
      "inputs": [
        {
          "name": "index",
          "type": "uint256"
        }
      ],
      "name": "getSignDeedSecond",
      "outputs": [
        {
          "name": "",
          "type": "uint256"
        },
        {
          "name": "",
          "type": "uint256"
        },
        {
          "name": "",
          "type": "uint256"
        },
        {
          "name": "",
          "type": "bytes32"
        },
        {
          "name": "",
          "type": "uint256"
        },
        {
          "name": "",
          "type": "uint256"
        },
        {
          "name": "",
          "type": "uint256"
        }
      ],
      "payable": false,
      "stateMutability": "view",
      "type": "function"
    }
  ],
  "bytecode": "0x608060405234801561001057600080fd5b506000610120604051908101604052806000815260200160008152602001600081526020016000815260200160006001028152602001600060010281526020016000815260200160008152602001600081525090806001815401808255809150509060018203906000526020600020906009020160009091929091909150600082015181600001556020820151816001015560408201518160020155606082015181600301556080820151816004015560a0820151816005015560c0820151816006015560e082015181600701556101008201518160080155505050610b95806100fb6000396000f3fe608060405260043610610083576000357c0100000000000000000000000000000000000000000000000000000000900463ffffffff1680634322642c146100885780634a803387146100e15780639ee091bf14610144578063b5ec0557146101bd578063cdc2a98e14610244578063de15bca11461026f578063fdc37731146102c8575b600080fd5b34801561009457600080fd5b506100cb600480360360408110156100ab57600080fd5b810190808035906020019092919080359060200190929190505050610341565b6040518082815260200191505060405180910390f35b3480156100ed57600080fd5b5061012e6004803603606081101561010457600080fd5b81019080803590602001909291908035906020019092919080359060200190929190505050610549565b6040518082815260200191505060405180910390f35b34801561015057600080fd5b5061017d6004803603602081101561016757600080fd5b8101908080359060200190929190505050610691565b6040518088815260200187815260200186815260200185815260200184815260200183815260200182815260200197505050505050505060405180910390f35b3480156101c957600080fd5b506101f6600480360360208110156101e057600080fd5b810190808035906020019092919050505061079b565b604051808a8152602001898152602001888152602001878152602001868152602001858152602001848152602001838152602001828152602001995050505050505050505060405180910390f35b34801561025057600080fd5b506102596107f8565b6040518082815260200191505060405180910390f35b34801561027b57600080fd5b506102b26004803603604081101561029257600080fd5b810190808035906020019092919080359060200190929190505050610804565b6040518082815260200191505060405180910390f35b3480156102d457600080fd5b50610301600480360360208110156102eb57600080fd5b8101908080359060200190929190505050610a0c565b6040518088815260200187815260200186815260200185815260200184815260200183815260200182815260200197505050505050505060405180910390f35b600061034b610b16565b60008481548110151561035a57fe5b906000526020600020906009020161012060405190810160405290816000820154815260200160018201548152602001600282015481526020016003820154815260200160048201548152602001600582015481526020016006820154815260200160078201548152602001600882015481525050905082816080018181525050806000858154811015156103eb57fe5b9060005260206000209060090201600082015181600001556020820151816001015560408201518160020155606082015181600301556080820151816004015560a0820151816005015560c0820151816006015560e08201518160070155610100820151816008015590505060006001028160a001511415801561047757506000600102816080015114155b156105045760018160c00181815250508060008581548110151561049757fe5b9060005260206000209060090201600082015181600001556020820151816001015560408201518160020155606082015181600301556080820151816004015560a0820151816005015560c0820151816006015560e0820151816007015561010082015181600801559050505b806000015191507f92bc66307c938e1f598267ab825da3baad66283790eaeff9049caf97ff9d0540826040518082815260200191505060405180910390a15092915050565b600080805490509050600061012060405190810160405280838152602001868152602001858152602001848152602001600060010281526020016000600102815260200160008152602001600081526020016001840381525090806001815401808255809150509060018203906000526020600020906009020160009091929091909150600082015181600001556020820151816001015560408201518160020155606082015181600301556080820151816004015560a0820151816005015560c0820151816006015560e0820151816007015561010082015181600801555050508060006001830381548110151561063e57fe5b9060005260206000209060090201600701819055507fc56bc3c3f07ef03390a445e904bef98f8726182669abf36fd54f8fe19b831f67816040518082815260200191505060405180910390a19392505050565b600080600080600080600080888154811015156106aa57fe5b9060005260206000209060090201600001546000898154811015156106cb57fe5b90600052602060002090600902016001015460008a8154811015156106ec57fe5b90600052602060002090600902016002015460008b81548110151561070d57fe5b90600052602060002090600902016004015460008c81548110151561072e57fe5b90600052602060002090600902016006015460008d81548110151561074f57fe5b90600052602060002090600902016008015460008e81548110151561077057fe5b9060005260206000209060090201600701549650965096509650965096509650919395979092949650565b6000818154811015156107aa57fe5b90600052602060002090600902016000915090508060000154908060010154908060020154908060030154908060040154908060050154908060060154908060070154908060080154905089565b60008080549050905090565b600061080e610b16565b60008481548110151561081d57fe5b9060005260206000209060090201610120604051908101604052908160008201548152602001600182015481526020016002820154815260200160038201548152602001600482015481526020016005820154815260200160068201548152602001600782015481526020016008820154815250509050828160a0018181525050806000858154811015156108ae57fe5b9060005260206000209060090201600082015181600001556020820151816001015560408201518160020155606082015181600301556080820151816004015560a0820151816005015560c0820151816006015560e08201518160070155610100820151816008015590505060006001028160a001511415801561093a57506000600102816080015114155b156109c75760018160c00181815250508060008581548110151561095a57fe5b9060005260206000209060090201600082015181600001556020820151816001015560408201518160020155606082015181600301556080820151816004015560a0820151816005015560c0820151816006015560e0820151816007015561010082015181600801559050505b806000015191507fe5893e8b6d9575f93bd030a82a90b316738a212395921e10191e1be85b5553b9826040518082815260200191505060405180910390a15092915050565b60008060008060008060008088815481101515610a2557fe5b906000526020600020906009020160000154600089815481101515610a4657fe5b90600052602060002090600902016001015460008a815481101515610a6757fe5b90600052602060002090600902016002015460008b815481101515610a8857fe5b90600052602060002090600902016003015460008c815481101515610aa957fe5b90600052602060002090600902016005015460008d815481101515610aca57fe5b90600052602060002090600902016008015460008e815481101515610aeb57fe5b9060005260206000209060090201600701549650965096509650965096509650919395979092949650565b61012060405190810160405280600081526020016000815260200160008152602001600081526020016000801916815260200160008019168152602001600081526020016000815260200160008152509056fea165627a7a723058201f0736efc951d1341b84b6869ddb847d2ce18dfdc4bd2a4a33f834c1e6c2eaf80029",
  "source": "pragma solidity 0.5.0;\r\n  \r\n  contract SignDeedContract {\r\n      \r\n     struct SignDeed {\r\n        uint id;                                                                \r\n        uint propertyId;\r\n        uint deedId;\r\n        uint soldAmount;\r\n        bytes32 buyerSignature;\r\n        bytes32 sellerSignature;\r\n        uint verified;\r\n        uint next;\r\n        uint prev;\r\n    }\r\n        \r\n        SignDeed[] public signDeeds;\r\n        SignDeed currentDeedNode;\r\n        event newIdEvent(uint newID);\r\n        event updateByBuyerEvent(uint updatedId);\r\n        event updateBySellerEvent(uint updatedId);\r\n        constructor() public {\r\n            // sentinel\r\n            signDeeds.push(SignDeed(0, 0, 0,0, 0x00,0x00,0,0,0));\r\n        }\r\n\r\n\r\n    function insert(                                                                \r\n        uint _propertyId,\r\n        uint _deedId,\r\n        uint _soldAmount) public returns (uint newID) {\r\n\r\n        newID = signDeeds.length;\r\n\r\n        signDeeds.push(SignDeed({\r\n                 id:newID,                                                               \r\n                 propertyId:_propertyId,\r\n                 deedId: _deedId,\r\n                 soldAmount: _soldAmount,\r\n                 buyerSignature: 0x00,\r\n                 sellerSignature: 0x00,\r\n                 verified:0,\r\n                 prev: newID-1,\r\n                 next: 0\r\n        }));\r\n      signDeeds[newID-1].next=newID;\r\n        emit newIdEvent(newID);\r\n    }\r\n    \r\n     function signForSeller(                                                                \r\n        uint _signDeedId,\r\n        bytes32 _sellerSignature) public returns (uint updatedId) {\r\n\r\n        SignDeed memory signDeed = signDeeds[_signDeedId];\r\n        //verify buyer signature code\r\n        signDeed.sellerSignature=_sellerSignature;\r\n        signDeeds[_signDeedId] = signDeed;\r\n        if(signDeed.sellerSignature  != 0\r\n        && signDeed.buyerSignature  != 0){\r\n            signDeed.verified=1;\r\n            signDeeds[_signDeedId] = signDeed;\r\n        }\r\n        updatedId = signDeed.id;\r\n        emit updateBySellerEvent(updatedId);\r\n    }\r\n    \r\n     function signForBuyer(                                                                \r\n        uint _signDeedId,\r\n        bytes32 _buyerSignature) public returns (uint updatedId) {\r\n\r\n        SignDeed memory signDeed = signDeeds[_signDeedId];\r\n        //verify buyer signature code\r\n        signDeed.buyerSignature=_buyerSignature;\r\n        signDeeds[_signDeedId] = signDeed;\r\n        if(signDeed.sellerSignature  != 0\r\n        && signDeed.buyerSignature  != 0){\r\n            signDeed.verified=1;\r\n            signDeeds[_signDeedId] = signDeed;\r\n        }\r\n        \r\n        updatedId= signDeed.id;\r\n        emit updateByBuyerEvent(updatedId);\r\n    }\r\n\r\n    function isValidNode(uint id) internal view returns (bool) {\r\n        // 0 is a sentinel and therefore invalid.\r\n        // A valid node is the head or has a previous node.\r\n        return id != 0 && (id == signDeeds[0].next || signDeeds[id].prev != 0);\r\n    }\r\n    \r\n    function getSignDeedCount() public view returns(uint) {\r\n      return signDeeds.length;\r\n    }\r\n\r\n    function getSignDeedFirst(uint index) public view returns(uint,\r\n        uint,uint,uint,bytes32,uint, uint) {\r\n        return (signDeeds[index].id, \r\n        signDeeds[index].propertyId,\r\n        signDeeds[index].deedId,\r\n        signDeeds[index].soldAmount,\r\n        signDeeds[index].sellerSignature,\r\n        signDeeds[index].prev, \r\n        signDeeds[index].next);\r\n    }\r\n    \r\n     function getSignDeedSecond(uint index) public view returns(uint,\r\n        uint,uint,bytes32,uint,uint, uint) {\r\n        return (signDeeds[index].id, \r\n        signDeeds[index].propertyId,\r\n        signDeeds[index].deedId,\r\n        signDeeds[index].buyerSignature,\r\n        signDeeds[index].verified,\r\n        signDeeds[index].prev, \r\n        signDeeds[index].next);\r\n    }\r\n \r\n      \r\n}\r\n  \r\n",
  "sourcePath": "C:/AsadFiles/final-year-project/real-estate-ledger-frontend/contracts/SignDeedContract.sol",
  "compiler": {
    "name": "solc",
    "version": "0.5.0+commit.1d4f565a.Emscripten.clang"
  },
  "schemaVersion": "3.0.9",
  "updatedAt": "2019-06-04T07:31:23.146Z",
  "devdoc": {
    "methods": {}
  },
  "userdoc": {
    "methods": {}
  }
}