{
  "contractName": "SignDeedContract",
  "abi": [
    {
      "constant": true,
      "inputs": [
        {
          "name": "",
          "type": "uint256"
        }
      ],
      "name": "signDeeds",
      "outputs": [
        {
          "name": "id",
          "type": "uint256"
        },
        {
          "name": "propertyId",
          "type": "uint256"
        },
        {
          "name": "deedId",
          "type": "uint256"
        },
        {
          "name": "soldAmount",
          "type": "uint256"
        },
        {
          "name": "buyerSignature",
          "type": "bytes"
        },
        {
          "name": "sellerSignature",
          "type": "bytes"
        },
        {
          "name": "verified",
          "type": "uint256"
        },
        {
          "name": "next",
          "type": "uint256"
        },
        {
          "name": "prev",
          "type": "uint256"
        }
      ],
      "payable": false,
      "stateMutability": "view",
      "type": "function"
    },
    {
      "inputs": [],
      "payable": false,
      "stateMutability": "nonpayable",
      "type": "constructor"
    },
    {
      "anonymous": false,
      "inputs": [
        {
          "indexed": false,
          "name": "newID",
          "type": "uint256"
        }
      ],
      "name": "newIdEvent",
      "type": "event"
    },
    {
      "anonymous": false,
      "inputs": [
        {
          "indexed": false,
          "name": "updatedId",
          "type": "uint256"
        }
      ],
      "name": "updateByBuyerEvent",
      "type": "event"
    },
    {
      "anonymous": false,
      "inputs": [
        {
          "indexed": false,
          "name": "updatedId",
          "type": "uint256"
        }
      ],
      "name": "updateBySellerEvent",
      "type": "event"
    },
    {
      "constant": false,
      "inputs": [
        {
          "name": "_propertyId",
          "type": "uint256"
        },
        {
          "name": "_deedId",
          "type": "uint256"
        },
        {
          "name": "_soldAmount",
          "type": "uint256"
        }
      ],
      "name": "insert",
      "outputs": [
        {
          "name": "newID",
          "type": "uint256"
        }
      ],
      "payable": false,
      "stateMutability": "nonpayable",
      "type": "function"
    },
    {
      "constant": false,
      "inputs": [
        {
          "name": "_signDeedId",
          "type": "uint256"
        },
        {
          "name": "_sellerSignature",
          "type": "bytes"
        }
      ],
      "name": "signForSeller",
      "outputs": [
        {
          "name": "updatedId",
          "type": "uint256"
        }
      ],
      "payable": false,
      "stateMutability": "nonpayable",
      "type": "function"
    },
    {
      "constant": false,
      "inputs": [
        {
          "name": "_signDeedId",
          "type": "uint256"
        },
        {
          "name": "_buyerSignature",
          "type": "bytes"
        }
      ],
      "name": "signForBuyer",
      "outputs": [
        {
          "name": "updatedId",
          "type": "uint256"
        }
      ],
      "payable": false,
      "stateMutability": "nonpayable",
      "type": "function"
    },
    {
      "constant": true,
      "inputs": [],
      "name": "getSignDeedCount",
      "outputs": [
        {
          "name": "",
          "type": "uint256"
        }
      ],
      "payable": false,
      "stateMutability": "view",
      "type": "function"
    },
    {
      "constant": true,
      "inputs": [
        {
          "name": "index",
          "type": "uint256"
        }
      ],
      "name": "getSignDeedFirst",
      "outputs": [
        {
          "name": "",
          "type": "uint256"
        },
        {
          "name": "",
          "type": "uint256"
        },
        {
          "name": "",
          "type": "uint256"
        },
        {
          "name": "",
          "type": "uint256"
        },
        {
          "name": "",
          "type": "bytes"
        },
        {
          "name": "",
          "type": "uint256"
        },
        {
          "name": "",
          "type": "uint256"
        }
      ],
      "payable": false,
      "stateMutability": "view",
      "type": "function"
    },
    {
      "constant": true,
      "inputs": [
        {
          "name": "index",
          "type": "uint256"
        }
      ],
      "name": "getSignDeedSecond",
      "outputs": [
        {
          "name": "",
          "type": "uint256"
        },
        {
          "name": "",
          "type": "uint256"
        },
        {
          "name": "",
          "type": "uint256"
        },
        {
          "name": "",
          "type": "bytes"
        },
        {
          "name": "",
          "type": "uint256"
        },
        {
          "name": "",
          "type": "uint256"
        },
        {
          "name": "",
          "type": "uint256"
        }
      ],
      "payable": false,
      "stateMutability": "view",
      "type": "function"
    },
    {
      "constant": false,
      "inputs": [
        {
          "name": "_signDeedId",
          "type": "uint256"
        },
        {
          "name": "_nonce",
          "type": "uint256"
        },
        {
          "name": "_buyerPKey",
          "type": "address"
        },
        {
          "name": "_sellerPKey",
          "type": "address"
        }
      ],
      "name": "verify",
      "outputs": [
        {
          "name": "verified",
          "type": "uint256"
        }
      ],
      "payable": false,
      "stateMutability": "nonpayable",
      "type": "function"
    },
    {
      "constant": true,
      "inputs": [
        {
          "name": "owner",
          "type": "address"
        },
        {
          "name": "amount",
          "type": "uint256"
        },
        {
          "name": "nonce",
          "type": "uint256"
        },
        {
          "name": "signature",
          "type": "bytes"
        }
      ],
      "name": "verifySignature",
      "outputs": [
        {
          "name": "verified",
          "type": "uint256"
        }
      ],
      "payable": false,
      "stateMutability": "pure",
      "type": "function"
    }
  ],
  "bytecode": "0x60806040523480156200001157600080fd5b506000610120604051908101604052806000815260200160008152602001600081526020016000815260200160006040519080825280601f01601f191660200182016040528015620000725781602001600182028038833980820191505090505b50815260200160006040519080825280601f01601f191660200182016040528015620000ad5781602001600182028038833980820191505090505b5081526020016000815260200160008152602001600081525090806001815401808255809150509060018203906000526020600020906009020160009091929091909150600082015181600001556020820151816001015560408201518160020155606082015181600301556080820151816004019080519060200190620001379291906200017f565b5060a0820151816005019080519060200190620001569291906200017f565b5060c0820151816006015560e0820151816007015561010082015181600801555050506200022e565b828054600181600116156101000203166002900490600052602060002090601f016020900481019282601f10620001c257805160ff1916838001178555620001f3565b82800160010185558215620001f3579182015b82811115620001f2578251825591602001919060010190620001d5565b5b50905062000202919062000206565b5090565b6200022b91905b80821115620002275760008160009055506001016200020d565b5090565b90565b611fad806200023e6000396000f3fe608060405260043610610099576000357c0100000000000000000000000000000000000000000000000000000000900463ffffffff16806303c3a78d1461009e5780634197bf0d146101845780634a8033871461026a5780639ca1570c146102cd5780639ee091bf14610366578063b5ec055714610444578063cdc2a98e14610595578063ec0e642f146105c0578063fdc37731146106d0575b600080fd5b3480156100aa57600080fd5b5061016e600480360360408110156100c157600080fd5b8101908080359060200190929190803590602001906401000000008111156100e857600080fd5b8201836020820111156100fa57600080fd5b8035906020019184600183028401116401000000008311171561011c57600080fd5b91908080601f016020809104026020016040519081016040528093929190818152602001838380828437600081840152601f19601f8201169050808301925050505050505091929192905050506107ae565b6040518082815260200191505060405180910390f35b34801561019057600080fd5b50610254600480360360408110156101a757600080fd5b8101908080359060200190929190803590602001906401000000008111156101ce57600080fd5b8201836020820111156101e057600080fd5b8035906020019184600183028401116401000000008311171561020257600080fd5b91908080601f016020809104026020016040519081016040528093929190818152602001838380828437600081840152601f19601f820116905080830192505050505050509192919290505050610d47565b6040518082815260200191505060405180910390f35b34801561027657600080fd5b506102b76004803603606081101561028d57600080fd5b810190808035906020019092919080359060200190929190803590602001909291905050506112e0565b6040518082815260200191505060405180910390f35b3480156102d957600080fd5b50610350600480360360808110156102f057600080fd5b810190808035906020019092919080359060200190929190803573ffffffffffffffffffffffffffffffffffffffff169060200190929190803573ffffffffffffffffffffffffffffffffffffffff1690602001909291905050506114ae565b6040518082815260200191505060405180910390f35b34801561037257600080fd5b5061039f6004803603602081101561038957600080fd5b8101908080359060200190929190505050611767565b6040518088815260200187815260200186815260200180602001858152602001848152602001838152602001828103825286818151815260200191508051906020019080838360005b838110156104035780820151818401526020810190506103e8565b50505050905090810190601f1680156104305780820380516001836020036101000a031916815260200191505b509850505050505050505060405180910390f35b34801561045057600080fd5b5061047d6004803603602081101561046757600080fd5b810190808035906020019092919050505061190d565b604051808a81526020018981526020018881526020018781526020018060200180602001868152602001858152602001848152602001838103835288818151815260200191508051906020019080838360005b838110156104eb5780820151818401526020810190506104d0565b50505050905090810190601f1680156105185780820380516001836020036101000a031916815260200191505b50838103825287818151815260200191508051906020019080838360005b83811015610551578082015181840152602081019050610536565b50505050905090810190601f16801561057e5780820380516001836020036101000a031916815260200191505b509b50505050505050505050505060405180910390f35b3480156105a157600080fd5b506105aa611a9a565b6040518082815260200191505060405180910390f35b3480156105cc57600080fd5b506106ba600480360360808110156105e357600080fd5b81019080803573ffffffffffffffffffffffffffffffffffffffff16906020019092919080359060200190929190803590602001909291908035906020019064010000000081111561063457600080fd5b82018360208201111561064657600080fd5b8035906020019184600183028401116401000000008311171561066857600080fd5b91908080601f016020809104026020016040519081016040528093929190818152602001838380828437600081840152601f19601f820116905080830192505050505050509192919290505050611aa6565b6040518082815260200191505060405180910390f35b3480156106dc57600080fd5b50610709600480360360208110156106f357600080fd5b8101908080359060200190929190505050611b8a565b6040518088815260200187815260200186815260200185815260200180602001848152602001838152602001828103825285818151815260200191508051906020019080838360005b8381101561076d578082015181840152602081019050610752565b50505050905090810190601f16801561079a5780820380516001836020036101000a031916815260200191505b509850505050505050505060405180910390f35b60006107b8611e8f565b6000848154811015156107c757fe5b9060005260206000209060090201610120604051908101604052908160008201548152602001600182015481526020016002820154815260200160038201548152602001600482018054600181600116156101000203166002900480601f0160208091040260200160405190810160405280929190818152602001828054600181600116156101000203166002900480156108a35780601f10610878576101008083540402835291602001916108a3565b820191906000526020600020905b81548152906001019060200180831161088657829003601f168201915b50505050508152602001600582018054600181600116156101000203166002900480601f0160208091040260200160405190810160405280929190818152602001828054600181600116156101000203166002900480156109455780601f1061091a57610100808354040283529160200191610945565b820191906000526020600020905b81548152906001019060200180831161092857829003601f168201915b5050505050815260200160068201548152602001600782015481526020016008820154815250509050828160a001819052508060008581548110151561098757fe5b90600052602060002090600902016000820151816000015560208201518160010155604082015181600201556060820151816003015560808201518160040190805190602001906109d9929190611edc565b5060a08201518160050190805190602001906109f6929190611edc565b5060c0820151816006015560e08201518160070155610100820151816008015590505060006040519080825280601f01601f191660200182016040528015610a4d5781602001600182028038833980820191505090505b506040518082805190602001908083835b602083101515610a835780518252602082019150602081019050602083039250610a5e565b6001836020036101000a03801982511681845116808217855250505050505090500191505060405180910390208160a001516040518082805190602001908083835b602083101515610aea5780518252602082019150602081019050602083039250610ac5565b6001836020036101000a038019825116818451168082178552505050505050905001915050604051809103902014158015610c21575060006040519080825280601f01601f191660200182016040528015610b545781602001600182028038833980820191505090505b506040518082805190602001908083835b602083101515610b8a5780518252602082019150602081019050602083039250610b65565b6001836020036101000a038019825116818451168082178552505050505050905001915050604051809103902081608001516040518082805190602001908083835b602083101515610bf15780518252602082019150602081019050602083039250610bcc565b6001836020036101000a038019825116818451168082178552505050505050905001915050604051809103902014155b15610d0257610c3c6000826060015160018460a00151611aa6565b50610c536000826060015160018460800151611aa6565b5060018160c001818152505080600085815481101515610c6f57fe5b9060005260206000209060090201600082015181600001556020820151816001015560408201518160020155606082015181600301556080820151816004019080519060200190610cc1929190611edc565b5060a0820151816005019080519060200190610cde929190611edc565b5060c0820151816006015560e0820151816007015561010082015181600801559050505b806000015191507fe5893e8b6d9575f93bd030a82a90b316738a212395921e10191e1be85b5553b9826040518082815260200191505060405180910390a15092915050565b6000610d51611e8f565b600084815481101515610d6057fe5b9060005260206000209060090201610120604051908101604052908160008201548152602001600182015481526020016002820154815260200160038201548152602001600482018054600181600116156101000203166002900480601f016020809104026020016040519081016040528092919081815260200182805460018160011615610100020316600290048015610e3c5780601f10610e1157610100808354040283529160200191610e3c565b820191906000526020600020905b815481529060010190602001808311610e1f57829003601f168201915b50505050508152602001600582018054600181600116156101000203166002900480601f016020809104026020016040519081016040528092919081815260200182805460018160011615610100020316600290048015610ede5780601f10610eb357610100808354040283529160200191610ede565b820191906000526020600020905b815481529060010190602001808311610ec157829003601f168201915b505050505081526020016006820154815260200160078201548152602001600882015481525050905082816080018190525080600085815481101515610f2057fe5b9060005260206000209060090201600082015181600001556020820151816001015560408201518160020155606082015181600301556080820151816004019080519060200190610f72929190611edc565b5060a0820151816005019080519060200190610f8f929190611edc565b5060c0820151816006015560e08201518160070155610100820151816008015590505060006040519080825280601f01601f191660200182016040528015610fe65781602001600182028038833980820191505090505b506040518082805190602001908083835b60208310151561101c5780518252602082019150602081019050602083039250610ff7565b6001836020036101000a03801982511681845116808217855250505050505090500191505060405180910390208160a001516040518082805190602001908083835b602083101515611083578051825260208201915060208101905060208303925061105e565b6001836020036101000a0380198251168184511680821785525050505050509050019150506040518091039020141580156111ba575060006040519080825280601f01601f1916602001820160405280156110ed5781602001600182028038833980820191505090505b506040518082805190602001908083835b60208310151561112357805182526020820191506020810190506020830392506110fe565b6001836020036101000a038019825116818451168082178552505050505050905001915050604051809103902081608001516040518082805190602001908083835b60208310151561118a5780518252602082019150602081019050602083039250611165565b6001836020036101000a038019825116818451168082178552505050505050905001915050604051809103902014155b1561129b576111d56000826060015160018460a00151611aa6565b506111ec6000826060015160018460800151611aa6565b5060018160c00181815250508060008581548110151561120857fe5b906000526020600020906009020160008201518160000155602082015181600101556040820151816002015560608201518160030155608082015181600401908051906020019061125a929190611edc565b5060a0820151816005019080519060200190611277929190611edc565b5060c0820151816006015560e0820151816007015561010082015181600801559050505b806000015191507f92bc66307c938e1f598267ab825da3baad66283790eaeff9049caf97ff9d0540826040518082815260200191505060405180910390a15092915050565b60008080549050905060006101206040519081016040528083815260200186815260200185815260200184815260200160006040519080825280601f01601f1916602001820160405280156113445781602001600182028038833980820191505090505b50815260200160006040519080825280601f01601f19166020018201604052801561137e5781602001600182028038833980820191505090505b50815260200160008152602001600081526020016001840381525090806001815401808255809150509060018203906000526020600020906009020160009091929091909150600082015181600001556020820151816001015560408201518160020155606082015181600301556080820151816004019080519060200190611408929190611edc565b5060a0820151816005019080519060200190611425929190611edc565b5060c0820151816006015560e0820151816007015561010082015181600801555050508060006001830381548110151561145b57fe5b9060005260206000209060090201600701819055507fc56bc3c3f07ef03390a445e904bef98f8726182669abf36fd54f8fe19b831f67816040518082815260200191505060405180910390a19392505050565b60006114b8611e8f565b6000868154811015156114c757fe5b9060005260206000209060090201610120604051908101604052908160008201548152602001600182015481526020016002820154815260200160038201548152602001600482018054600181600116156101000203166002900480601f0160208091040260200160405190810160405280929190818152602001828054600181600116156101000203166002900480156115a35780601f10611578576101008083540402835291602001916115a3565b820191906000526020600020905b81548152906001019060200180831161158657829003601f168201915b50505050508152602001600582018054600181600116156101000203166002900480601f0160208091040260200160405190810160405280929190818152602001828054600181600116156101000203166002900480156116455780601f1061161a57610100808354040283529160200191611645565b820191906000526020600020905b81548152906001019060200180831161162857829003601f168201915b50505050508152602001600682015481526020016007820154815260200160088201548152505090506001611684858360600151888560800151611aa6565b1480156116a4575060016116a2848360600151888560a00151611aa6565b145b156117575760018160c0018181525050806000878154811015156116c457fe5b9060005260206000209060090201600082015181600001556020820151816001015560408201518160020155606082015181600301556080820151816004019080519060200190611716929190611edc565b5060a0820151816005019080519060200190611733929190611edc565b5060c0820151816006015560e0820151816007015561010082015181600801559050505b8060c00151915050949350505050565b600080600060606000806000808881548110151561178157fe5b9060005260206000209060090201600001546000898154811015156117a257fe5b90600052602060002090600902016001015460008a8154811015156117c357fe5b90600052602060002090600902016002015460008b8154811015156117e457fe5b906000526020600020906009020160040160008c81548110151561180457fe5b90600052602060002090600902016006015460008d81548110151561182557fe5b90600052602060002090600902016008015460008e81548110151561184657fe5b906000526020600020906009020160070154838054600181600116156101000203166002900480601f0160208091040260200160405190810160405280929190818152602001828054600181600116156101000203166002900480156118ed5780601f106118c2576101008083540402835291602001916118ed565b820191906000526020600020905b8154815290600101906020018083116118d057829003601f168201915b505050505093509650965096509650965096509650919395979092949650565b60008181548110151561191c57fe5b9060005260206000209060090201600091509050806000015490806001015490806002015490806003015490806004018054600181600116156101000203166002900480601f0160208091040260200160405190810160405280929190818152602001828054600181600116156101000203166002900480156119e05780601f106119b5576101008083540402835291602001916119e0565b820191906000526020600020905b8154815290600101906020018083116119c357829003601f168201915b505050505090806005018054600181600116156101000203166002900480601f016020809104026020016040519081016040528092919081815260200182805460018160011615610100020316600290048015611a7e5780601f10611a5357610100808354040283529160200191611a7e565b820191906000526020600020905b815481529060010190602001808311611a6157829003601f168201915b5050505050908060060154908060070154908060080154905089565b60008080549050905090565b6000600190506000858585604051602001808473ffffffffffffffffffffffffffffffffffffffff1673ffffffffffffffffffffffffffffffffffffffff166c0100000000000000000000000002815260140183815260200182815260200193505050506040516020818303038152906040528051906020012090506000611b2d82611d30565b90506000611b448583611d8890919063ffffffff16565b90508773ffffffffffffffffffffffffffffffffffffffff168173ffffffffffffffffffffffffffffffffffffffff161415611b7f57600193505b505050949350505050565b6000806000806060600080600088815481101515611ba457fe5b906000526020600020906009020160000154600089815481101515611bc557fe5b90600052602060002090600902016001015460008a815481101515611be657fe5b90600052602060002090600902016002015460008b815481101515611c0757fe5b90600052602060002090600902016003015460008c815481101515611c2857fe5b906000526020600020906009020160050160008d815481101515611c4857fe5b90600052602060002090600902016008015460008e815481101515611c6957fe5b906000526020600020906009020160070154828054600181600116156101000203166002900480601f016020809104026020016040519081016040528092919081815260200182805460018160011615610100020316600290048015611d105780601f10611ce557610100808354040283529160200191611d10565b820191906000526020600020905b815481529060010190602001808311611cf357829003601f168201915b505050505092509650965096509650965096509650919395979092949650565b60008160405160200180807f19457468657265756d205369676e6564204d6573736167653a0a333200000000815250601c01828152602001915050604051602081830303815290604052805190602001209050919050565b600060418251141515611d9e5760009050611e89565b60008060006020850151925060408501519150606085015160001a90507f7fffffffffffffffffffffffffffffff5d576e7357a4501ddfe92f46681b20a082600190041115611df35760009350505050611e89565b601b8160ff1614158015611e0b5750601c8160ff1614155b15611e1c5760009350505050611e89565b60018682858560405160008152602001604052604051808581526020018460ff1660ff1681526020018381526020018281526020019450505050506020604051602081039080840390855afa158015611e79573d6000803e3d6000fd5b5050506020604051035193505050505b92915050565b610120604051908101604052806000815260200160008152602001600081526020016000815260200160608152602001606081526020016000815260200160008152602001600081525090565b828054600181600116156101000203166002900490600052602060002090601f016020900481019282601f10611f1d57805160ff1916838001178555611f4b565b82800160010185558215611f4b579182015b82811115611f4a578251825591602001919060010190611f2f565b5b509050611f589190611f5c565b5090565b611f7e91905b80821115611f7a576000816000905550600101611f62565b5090565b9056fea165627a7a72305820dc2ee109c4f9066fb038905b011b4d0922289dd1241d147cecb7dc49d4964b800029",
  "source": "pragma solidity 0.5.0;\r\n\r\nimport { ECDSALibrary } from \"./ECDSALibrary.sol\"; \r\n  \r\n  contract SignDeedContract {\r\n      \r\n     struct SignDeed {\r\n        uint id;                                                                \r\n        uint propertyId;\r\n        uint deedId;\r\n        uint soldAmount;\r\n        bytes buyerSignature;\r\n        bytes sellerSignature;\r\n        uint verified;\r\n        uint next;\r\n        uint prev;\r\n    }\r\n        \r\n        SignDeed[] public signDeeds;\r\n        SignDeed currentDeedNode;\r\n        event newIdEvent(uint newID);\r\n        event updateByBuyerEvent(uint updatedId);\r\n        event updateBySellerEvent(uint updatedId);\r\n        constructor() public {\r\n            // sentinel\r\n            signDeeds.push(SignDeed(0, 0, 0,0, new bytes(0),new bytes(0) ,0 ,0 , 0));\r\n        }\r\n\r\n\r\n    function insert(                                                                \r\n        uint _propertyId,\r\n        uint _deedId,\r\n        uint _soldAmount) public returns (uint newID) {\r\n\r\n        newID = signDeeds.length;\r\n\r\n        signDeeds.push(SignDeed({\r\n                 id:newID,                                                               \r\n                 propertyId:_propertyId,\r\n                 deedId: _deedId,\r\n                 soldAmount: _soldAmount,\r\n                 buyerSignature: new bytes(0),\r\n                 sellerSignature: new bytes(0),\r\n                 verified:0,\r\n                 prev: newID-1,\r\n                 next: 0\r\n        }));\r\n      signDeeds[newID-1].next=newID;\r\n        emit newIdEvent(newID);\r\n    }\r\n    \r\n     function signForSeller(                                                                \r\n        uint _signDeedId,\r\n        bytes memory _sellerSignature) public returns (uint updatedId) {\r\n\r\n        SignDeed memory signDeed = signDeeds[_signDeedId];\r\n        //verify buyer signature code\r\n        signDeed.sellerSignature=  _sellerSignature;\r\n        signDeeds[_signDeedId] = signDeed;\r\n        if(keccak256(signDeed.sellerSignature)  != keccak256(new bytes(0))\r\n        && keccak256(signDeed.buyerSignature)  != keccak256(new bytes(0))){\r\n            verifySignature(address(0),signDeed.soldAmount,1,signDeed.sellerSignature);\r\n            verifySignature(address(0),signDeed.soldAmount,1,signDeed.buyerSignature);\r\n            signDeed.verified=1;\r\n            signDeeds[_signDeedId] = signDeed;\r\n        }\r\n        updatedId = signDeed.id;\r\n        emit updateBySellerEvent(updatedId);\r\n    }\r\n    \r\n        \r\n     function signForBuyer(                                                                \r\n        uint _signDeedId,\r\n        bytes memory _buyerSignature) public returns (uint updatedId) {\r\n\r\n        SignDeed memory signDeed = signDeeds[_signDeedId];\r\n        //verify buyer signature code\r\n        signDeed.buyerSignature=_buyerSignature;\r\n        signDeeds[_signDeedId] = signDeed;\r\n        if(keccak256(signDeed.sellerSignature)  != keccak256(new bytes(0))\r\n        && keccak256(signDeed.buyerSignature)  != keccak256(new bytes(0))){\r\n            verifySignature(address(0),signDeed.soldAmount,1,signDeed.sellerSignature);\r\n            verifySignature(address(0),signDeed.soldAmount,1,signDeed.buyerSignature);\r\n            signDeed.verified=1;\r\n            signDeeds[_signDeedId] = signDeed;\r\n        }\r\n        \r\n        updatedId= signDeed.id;\r\n        emit updateByBuyerEvent(updatedId);\r\n    }\r\n\r\n    function isValidNode(uint id) internal view returns (bool) {\r\n        // 0 is a sentinel and therefore invalid.\r\n        // A valid node is the head or has a previous node.\r\n        return id != 0 && (id == signDeeds[0].next || signDeeds[id].prev != 0);\r\n    }\r\n    \r\n    function getSignDeedCount() public view returns(uint) {\r\n      return signDeeds.length;\r\n    }\r\n\r\n    function getSignDeedFirst(uint index) public view returns(uint,\r\n        uint,uint,uint,bytes memory,uint, uint) {\r\n        return (signDeeds[index].id, \r\n        signDeeds[index].propertyId,\r\n        signDeeds[index].deedId,\r\n        signDeeds[index].soldAmount,\r\n        signDeeds[index].sellerSignature,\r\n        signDeeds[index].prev, \r\n        signDeeds[index].next);\r\n    }\r\n    \r\n     function getSignDeedSecond(uint index) public view returns(uint,\r\n        uint,uint,bytes memory,uint,uint, uint) {\r\n        return (signDeeds[index].id, \r\n        signDeeds[index].propertyId,\r\n        signDeeds[index].deedId,\r\n        signDeeds[index].buyerSignature,\r\n        signDeeds[index].verified,\r\n        signDeeds[index].prev, \r\n        signDeeds[index].next);\r\n    }\r\n    \r\n      function verify(uint _signDeedId,  uint _nonce,address _buyerPKey,address _sellerPKey) public \r\n      returns (uint verified){\r\n\r\n        SignDeed memory signDeed = signDeeds[_signDeedId];\r\n        //verify buyer\r\n        if(verifySignature(_buyerPKey,signDeed.soldAmount,_nonce,signDeed.buyerSignature) ==1 &&\r\n        //verifyseller\r\n        verifySignature(_sellerPKey,signDeed.soldAmount,_nonce,signDeed.sellerSignature) ==1){\r\n            signDeed.verified=1;\r\n            signDeeds[_signDeedId] = signDeed;\r\n        }\r\n        verified =signDeed.verified;\r\n    \r\n    }\r\n    \r\n    \r\n    \r\n    mapping(address => mapping(uint => bool)) seenNonces;\r\n    using ECDSALibrary for bytes32;\r\n\r\n    function verifySignature(address owner, uint amount, uint nonce, bytes memory signature) pure public \r\n    returns (uint verified){verified=1;\r\n      // This recreates the message hash that was signed on the client.\r\n      \r\n      bytes32 hash = keccak256(abi.encodePacked(owner, amount, nonce));\r\n      bytes32 messageHash = hash.toEthSignedMessageHash();\r\n    \r\n\r\n      // Verify that the message's signer is the owner of the order\r\n      address signer = messageHash.recover(signature);\r\n      if(signer == owner){\r\n            verified=1;\r\n      }\r\n    \r\n    }\r\n \r\n      \r\n}\r\n  \r\n",
  "sourcePath": "C:/AsadFiles/RealEstateLedgerFrontEnd/contracts/SignDeedContract.sol",
  "compiler": {
    "name": "solc",
    "version": "0.5.0+commit.1d4f565a.Emscripten.clang"
  },
  "schemaVersion": "3.0.9",
  "updatedAt": "2019-06-12T04:43:07.520Z",
  "devdoc": {
    "methods": {}
  },
  "userdoc": {
    "methods": {}
  }
}